:100000000C9459000C9481000C9481000C94810094
:100010000C9481000C9481000C9481000C9481005C
:100020000C9481000C9481000C9481000C9481004C
:100030000C9481000C9481000C9481000C9481003C
:100040000C9417010C9481000C94B2010C948C0157
:100050000C9481000C9481000C9481000C9481001C
:100060000C94A3030C9481000000000025002800DC
:100070002B00040404040404040402020202020229
:10008000030303030303010204081020408001025C
:1000900004081020010204081020000000080002DB
:1000A0000100000304070000000000000000ED0F45
:1000B000E70F11241FBECFEFD8E0DEBFCDBF13E0A6
:1000C000A0E0B1E0E4EBFAE202C005900D92A83C9A
:1000D000B107D9F725E0A8ECB3E001C01D92A73B1A
:1000E000B207E1F710E0C8E5D0E004C02197FE01B7
:1000F0000E94A810C735D107C9F70E9497090C9430
:100100004D150C9400000895CF92DF92EF92FF926C
:100110000F931F93CF93DF936C017A018B01C0E0A3
:10012000D0E0CE15DF0589F0D8016D918D01D601A3
:10013000ED91FC910190F081E02DC6010995892B8C
:1001400011F47E0102C02196ECCFC701DF91CF915F
:100150001F910F91FF90EF90DF90CF900895089539
:1001600080E090E0089589EB94E00E94D30221E0C2
:10017000892B09F420E0822F08950E94BD130F936C
:100180001F93CF93DF93EC0188819981009729F029
:100190002A813B812617370788F48B016F5F7F4FD9
:1001A0000E94F312009761F0998388831B830A836E
:1001B0002C813D81232B11F4FC01108281E001C0D0
:1001C00080E0DF91CF911F910F9108953FB7F89490
:1001D0008091F5039091F603A091F703B091F80395
:1001E00026B5A89B05C02F3F19F00196A11DB11D92
:1001F0003FBFBA2FA92F982F8827820F911DA11DCD
:10020000B11DBC01CD0142E0660F771F881F991F09
:100210004A95D1F708952FB7F8946091F103709142
:10022000F2038091F3039091F4032FBF08951F927E
:100230000F920FB60F9211242F933F938F939F939A
:10024000AF93BF938091F1039091F203A091F303D8
:10025000B091F4033091F00323E0230F2D3720F405
:100260000196A11DB11D05C026E8230F0296A11D10
:10027000B11D2093F0038093F1039093F203A093B8
:10028000F303B093F4038091F5039091F603A091EA
:10029000F703B091F8030196A11DB11D8093F503FA
:1002A0009093F603A093F703B093F803BF91AF9137
:1002B0009F918F913F912F910F900FBE0F901F90A4
:1002C0001895EF92FF920F931F93CF93DF93EC015A
:1002D0007B018A01BA010E94BF0028813981811106
:1002E0000DC02115310519F0C9010E945B12198258
:1002F00018821D821C821B821A8206C01D830C83F9
:10030000B701C9010E94D413CE01DF91CF911F9193
:100310000F91FF90EF9008951F920F920FB60F92DA
:1003200011242F933F934F935F936F937F938F93FA
:100330009F93AF93BF93EF93FF9389EB94E00E9459
:100340005206FF91EF91BF91AF919F918F917F9155
:100350006F915F914F913F912F910F900FBE0F9032
:100360001F9018951F920F920FB60F9211242F9382
:100370008F939F93EF93FF93E091C904F091CA0488
:100380008081E091CF04F091D00482FD12C0908171
:100390008091D2048F5F8F732091D304821751F024
:1003A000E091D204F0E0E754FB4F958F8093D204A4
:1003B00001C08081FF91EF919F918F912F910F90BC
:1003C0000FBE0F901F90189585ED8093BC00809113
:1003D000BC0084FDFCCF1092AC04089540911B0436
:1003E000262F30E0240F311D21323105DCF420911D
:1003F000AC042430C9F4FC0180E090E0861758F486
:1004000030911B042191DC01A750BC4FA30FB11DFB
:100410002C930196F3CF80911B04680F60931B040B
:1004200080E0089581E0089582E008950895E091C4
:10043000410480914004E81730F4F0E0EA59FB4FA2
:10044000808190E008958FEF9FEF0895909141048F
:1004500080914004981750F4E92FF0E0EA59FB4FDF
:10046000208130E09F5F9093410402C02FEF3FEF67
:10047000C90108958091400490E020914104821BBD
:1004800091090895CF92DF92EF92FF920F931F93FD
:10049000CF93DF937C01262F972F8A01809142040E
:1004A000882391F0C62FD72F6E01C40ED51ECC1510
:1004B000DD0571F06991D701ED91FC910190F0811A
:1004C000E02DC7010995F3CF642F822F0E94EE0122
:1004D000C801DF91CF911F910F91FF90EF90DF90B6
:1004E000CF900895CF93DF931F92CDB7DEB7698386
:1004F000209142042223D1F020916504203240F063
:1005000021E030E0FC013383228380E090E015C0DD
:1005100080914304E82FF0E0EC5BFB4F99819083DE
:100520008F5F809343048093650405C061E0CE0132
:1005300001960E94EE0181E090E00F90DF91CF9153
:1005400008950895FC01538D448D252F30E0842FAC
:1005500090E0821B930B541710F0CF9608950197EB
:100560000895FC01918D828D981761F0828DDF01D5
:10057000A80FB11D5D968C91928D9F5F9F73928F96
:1005800090E008958FEF9FEF0895FC01918D828D8B
:10059000981731F0828DE80FF11D858D90E0089558
:1005A0008FEF9FEF0895FC01918D228D892F90E0B0
:1005B000805C9F4F821B91098F739927089580E07B
:1005C00090E0892B29F00E94B30081110C94000067
:1005D00008950F931F93CF93DF938C01EB0188E273
:1005E000FB0111928A95E9F74BE050E062E672E078
:1005F000CE010E94DB131B8681E090E0A0E0B0E01A
:100600008C879D87AE87BF87F80184819581A681FD
:10061000B781888B998BAA8BBB8B83E090E0A0E09D
:10062000B0E08C8B9D8BAE8BBF8B1CA21DA21EA23B
:100630001FA2188E198E1A8E1B8E1C8E1D8E1E8E5A
:100640001F8E8AE097EDA3E2BCE388A399A3AAA337
:10065000BBA3DF91CF911F910F9108950C945B1272
:10066000CF92DF92EF92FF92CF93DF936B017C01E9
:1006700097FF12C08DE20E941607EC0166277727CC
:10068000CB016C197D098E099F094AE00E9433074E
:100690007C01EC0EFD1E04C04AE00E9433077C0181
:1006A00088EB93E00E9421078E0D9F1DDF91CF9173
:1006B000FF90EF90DF90CF90089590E0FC01E65618
:1006C000FF4F2491FC01EA57FF4F3491FC01EE5893
:1006D000FF4FE491EE23B1F1222339F1233091F061
:1006E00038F42130A9F0223001F584B58F7D12C095
:1006F000273091F02830A1F02430B9F480918000A7
:100700008F7D03C0809180008F77809380000DC023
:1007100084B58F7784BD09C08091B0008F7703C006
:100720008091B0008F7D8093B000F0E0EE0FFF1F4E
:10073000E859FF4FA591B4918FB7F894EC913E2BF7
:100740003C938FBF08951F920F920FB60F92112402
:100750002F933F934F935F936F937F938F939F93C9
:10076000AF93BF93EF93FF938091B900887F80365A
:1007700009F49CC068F5883209F45BC090F48031BC
:1007800009F454C038F4882309F4F6C0883009F419
:100790004DC0F6C0883109F44CC0803209F45DC008
:1007A000EFC0803409F468C048F4803309F455C0C0
:1007B000883309F0E5C08093AA04D8C0803509F4D5
:1007C0004FC0883509F45DC0883409F0D9C0D6C05F
:1007D000883909F4C7C0A8F4883709F467C038F429
:1007E000883609F463C0803709F460C0C9C088380E
:1007F00009F4B8C0803909F45FC0803809F0C0C07E
:100800005BC0803B09F486C038F4803A09F466C0C6
:10081000883A09F47FC0B4C0803C09F4A7C0883C82
:1008200009F4A4C0883B09F48AC0AAC08091A70437
:1008300010C09091A9048091A804981770F5E091D8
:10084000A90481E08E0F8093A904F0E0EA57FB4FE2
:1008500080818093BB0085EC86C08093AA048EC003
:10086000E091A90481E08E0F8093A9048091BB00E0
:10087000F0E0EA57FB4F80839091A9048091A8048F
:100880006EC0E091A90481E08E0F8093A90480914D
:10089000BB00F0E0EA57FB4F80838091AB048111ED
:1008A0006DC081E08093A60484EA61C083E08093F8
:1008B000AC0410923F04CFCF80913F04803208F007
:1008C00051C0E0913F0481E08E0F80933F048091FE
:1008D000BB00F0E0E15EFB4F8083BDCF85EC8093F1
:1008E000BC001092AC0480913F04803230F4E0915F
:1008F0003F04F0E0E15EFB4F108260913F0470E046
:10090000E0911D04F0911E048FE194E0099510928E
:100910003F0436C084E08093AC0410921C04109213
:100920001B04E0911904F0911A04099580911B04AD
:10093000811105C081E080931B041092F903E091BE
:100940001C0481E08E0F80931C04F0E0E750FC4F04
:1009500080818093BB0090911C0480911B049817A8
:1009600008F479CF85E88093BC000AC085EC8093B9
:10097000BC001092AC0404C01092AA040E94E401CE
:10098000FF91EF91BF91AF919F918F917F916F9167
:100990005F914F913F912F910F900FBE0F901F903D
:1009A000189508952CE0FC0111922A95E9F7089515
:1009B000AF92BF92CF92DF92EF92FF920F931F936D
:1009C000CF93DF9300D000D000D0CDB7DEB77C014D
:1009D0006B015A010E94D2048E010F5F1F4F86E007
:1009E000F80111928A95E9F7F601838191E09093DD
:1009F00042048093640410924304109265046A2DAB
:100A00008DEA94E00E94720281E00E94BA0766E0DB
:100A1000F60183810E94760710924104809340047E
:100A200036E0D32ED00E8DEA94E00E942602F80123
:100A300081938F01DE12F7CF6A8170E0762F6627EF
:100A40008981682BCC80D12CDC2CCC248B81C82ACA
:100A50000E8110E0102F00278D81082BF4E1AF16D6
:100A6000B104D1F054F4E8E0AE16B10409F470C05A
:100A7000FEE0AF16B104E9F19EC088E2A816B10409
:100A800009F466C0EEE2AE16B10409F461C0FAE101
:100A9000AF16B10471F18FC0072E000C880B990BB3
:100AA0000E94F11320E030E041E654E40E941B1163
:100AB000F7016083718382839383B601DD0C880B19
:100AC000990B0E94F11320E030E041E654E40E94CB
:100AD0001B11F7016483758386839783B801110F17
:100AE000880B990B0E94F11320E030E041E654E4BA
:100AF0005BC0072E000C880B990B0E94F11320E0BD
:100B000030E040E85DE30E945014F7016083718398
:100B100082839383B601DD0C880B990B0E94F1133D
:100B200020E030E040E85DE30E945014F701648368
:100B3000758386839783B801110F880B990B0E94E8
:100B4000F11320E030E040E85DE30E9450142EC035
:100B5000072E000C880B990B0E94F11320E030E067
:100B600048EC52E40E941B11F70160837183828379
:100B70009383B601DD0C880B990B0E94F11320E0E2
:100B800030E048EC52E40E941B11F7016483758346
:100B900086839783B801110F880B990B0E94F1137C
:100BA00020E030E048EC52E40E941B11F70160871E
:100BB000718782879387C70126960FB6F894DEBFA8
:100BC0000FBECDBFDF91CF911F910F91FF90EF909E
:100BD000DF90CF90BF90AF900895EF92FF920F9368
:100BE0001F93CF93DF93CDB7DEB72C970FB6F89452
:100BF000DEBF0FBECDBF7C018B0184E2FB011192F1
:100C00008A95E9F784E290E0A0E0B0E0FB01808300
:100C10009183A283B383F70184819581A681B781F3
:100C2000FB0184839583A683B78383E090E0A0E0F3
:100C3000B0E080879187A287B3870E940B01F801FB
:100C4000608B718B828B938B4AE150E0B701CE01B0
:100C500001960E94D80489819A81AB81BC81F801F8
:100C6000848B958BA68BB78B8D819E81AF81B88548
:100C7000808F918FA28FB38F89859A85AB85BC8534
:100C8000848F958FA68FB78F81E02C960FB6F8943E
:100C9000DEBF0FBECDBFDF91CF911F910F91FF90AF
:100CA000EF900895FC01848DDF01A80FB11DA35AB8
:100CB000BF4F2C91848D90E001968F739927848F7C
:100CC000A689B7892C93A089B1898C9180648C9373
:100CD000938D848D981306C00288F389E02D80815E
:100CE0008F7D80830895EF92FF920F931F93CF9390
:100CF000DF93EC0181E0888F9B8D8C8D981305C06C
:100D0000E889F989808185FD24C0F62E0B8D10E0DD
:100D10000F5F1F4F0F731127E02E8C8DE8120CC050
:100D20000FB607FCFACFE889F989808185FFF5CFF6
:100D3000CE010E945206F1CF8B8DFE01E80FF11D0E
:100D4000E35AFF4FF0820B8FEA89FB898081806232
:100D500007C0EE89FF896083E889F9898081806412
:100D6000808381E090E0DF91CF911F910F91FF9000
:100D7000EF900895CF93DF93EC01888D8823C9F01D
:100D8000EA89FB89808185FD05C0A889B9898C9194
:100D900086FD0FC00FB607FCF5CF808185FFF2CF2F
:100DA000A889B9898C9185FFEDCFCE010E945206AA
:100DB000E7CFDF91CF9108958F929F92AF92BF922C
:100DC000CF92DF92EF92FF926B017C010E94E600CE
:100DD0004B015C01C114D104E104F104F1F00E9463
:100DE000E600DC01CB0188199909AA09BB09883EF4
:100DF0009340A105B10570F321E0C21AD108E108C2
:100E0000F10888EE880E83E0981EA11CB11CC11465
:100E1000D104E104F10419F7DDCFFF90EF90DF90EA
:100E2000CF90BF90AF909F908F900895E091B904BC
:100E3000F091BA040190F081E02D682F89EB94E0E5
:100E40000994009769F0FC0101900020E9F73197BF
:100E5000AF01481B590BBC0189EB94E00C94840052
:100E600080E090E008958F929F92AF92BF920F938F
:100E70001F93CF93DF93CDB7DEB7A1970FB6F8944A
:100E8000DEBF0FBECDBF19A2423008F44AE08E018A
:100E90000F5D1F4F842E912CA12CB12CA501940124
:100EA0000E948610E62FB901CA0101501109EA30EB
:100EB00014F4E05D01C0E95CD801EC93232B242BF2
:100EC000252B61F7C8010E942107A1960FB6F8945F
:100ED000DEBF0FBECDBFDF91CF911F910F91BF90AD
:100EE000AF909F908F9008950C9421079091AC043F
:100EF0009111FCCF91E09093AC049093AB042FEF51
:100F00002093AA041092A904260F2093A80490937A
:100F1000A7049091A704880F892B8093A704809140
:100F2000A604813061F41092A6048091A7048093F6
:100F3000BB008091BC0083FDF8CF85EC01C085EE3D
:100F40008093BC008091AC048130E1F38091A904CE
:100F5000861710F46091A904A6E8B4E026E634E010
:100F6000F9018E2F821B861718F48D918193F9CF8A
:100F7000862F0895382F20916504909164042132C2
:100F800008F049C08091AC048111FCCF42E040934D
:100F9000AC043093AB043FEF3093AA041092A90441
:100FA0002093A804A4E4B4E046E854E0FA013E2FFC
:100FB000341B321718F43D913193F9CF1092A704E6
:100FC0002091A704990F922B9093A7049091A604C7
:100FD000913061F41092A6049091A7049093BB0005
:100FE0009091BC0093FDF8CF95EC01C095EE9093E5
:100FF000BC009091AC049230E1F39091AA049F3F21
:1010000079F08091AA04803241F08091AA04803363
:1010100031F084E005C081E003C082E001C083E0DC
:101020001092430410926504109242040895CF93E5
:10103000DF93CDE5D5E09B8121E02093420490939E
:1010400064041092430410926504682F8DEA94E0C2
:101050000E94720281E00E94BA0761E08B810E94C7
:10106000760710924104809340048DEA94E00E9438
:101070002602DF91CF9108954F925F926F927F92F7
:101080008F929F92AF92BF92CF92DF92EF92FF9298
:101090006B017C01B42E9B01AC010E94C11188231D
:1010A00019F08BEB93E027C026013701E89477F81D
:1010B0002FEF3FEF4FE75FE7C301B2010E94C1117D
:1010C00081110DC02FEF3FEF4FE75FE7C301B20182
:1010D0000E94EA1318161CF48FEB93E00CC02FEF5C
:1010E0003FEF4FE75FE4C701B6010E94BC1118163D
:1010F00084F483EC93E0FF90EF90DF90CF90BF906B
:10110000AF909F908F907F906F905F904F900C94D6
:1011100021072FEF3FEF4FE75FECC701B6010E94B9
:10112000EA1387FDE6CF20E030E0A901C701B60150
:101130000E94EA1387FF09C08DE20E9416074C0146
:10114000F7FAF094F7F8F09402C0812C912CA12CBE
:1011500060E070E080E09FE3AB1440F420E030E01A
:1011600040E251E40E941B11A394F6CF9B01AC0115
:10117000C701B6010E94AF102B013C010E948D11E6
:101180006B017C010E94EF139B01AC01C301B20112
:101190000E94AE102B013C014AE0C701B6010E943B
:1011A00033077C01E80CF91CBB2029F08EE20E9479
:1011B0001607E80EF91EDB2CDD2021F120E030E0DF
:1011C00040E251E4C301B2010E9450142B013C01E2
:1011D0000E948D114B01A12CB12C4AE0C501B40134
:1011E0000E943307E80EF91EC501B4010E94EF13F7
:1011F0009B01AC01C301B2010E94AE102B013C0166
:10120000DA94DACFC701FF90EF90DF90CF90BF90D4
:10121000AF909F908F907F906F905F904F900895C8
:101220000F931F930E940B016093C1047093C2043B
:101230008093C3049093C404E091B904F091BA047C
:101240000284F385E02D89EB94E0099597FF1FC098
:101250000E940B010091C1041091C2042091C304AB
:101260003091C404DC01CB01801B910BA20BB30BAA
:101270000091BD041091BE042091BF043091C004C0
:1012800080179107A207B307B8F28FEF9FEF1F9166
:101290000F910895CF93C62F9091600521E0209380
:1012A0004204909364041092430410926504682FE2
:1012B0008DEA94E00E9472026C2F8DEA94E00E9405
:1012C000720281E00E94BA0781E0CF910895EDE5B6
:1012D000F5E080879187682F8DE390E00E944A09AE
:1012E0006EE170E080E090E00C94DC06CF93DF9339
:1012F0000E942107EC0188EB93E00E9421078C0FEC
:101300009D1FDF91CF910895CF93DF93682F70E0F9
:1013100080E090E040E10E943307EC0188EB93E02D
:101320000E9421078C0F9D1FDF91CF910895CF93CD
:10133000DF93CDB7DEB7C257D1090FB6F894DEBF41
:101340000FBECDBF789484B5826084BD84B58160C2
:1013500084BD85B5826085BD85B5816085BD809180
:101360006E00816080936E001092810080918100F8
:1013700082608093810080918100816080938100F0
:10138000809180008160809380008091B1008460B2
:101390008093B1008091B00081608093B000809113
:1013A0007A00846080937A0080917A0082608093D2
:1013B0007A0080917A00816080937A0080917A002F
:1013C000806880937A001092C100E091C904F09186
:1013D000CA0482E08083E091C504F091C6041082C3
:1013E000E091C704F091C80480E180831092D10499
:1013F000E091CD04F091CE0486E08083E091CB04AF
:10140000F091CC04808180618083E091CB04F091E5
:10141000CC04808188608083E091CB04F091CC047F
:10142000808180688083E091CB04F091CC0480813E
:101430008F7D808384E690E0A0E0B0E08093BD04DF
:101440009093BE04A093BF04B093C00486E491E0DF
:101450000E94740768EE73E080E090E00E94DC0672
:1014600010924104109240041092430410926504BB
:101470001092AC0481E08093AB041092A60482E148
:101480000E945D0383E10E945D038091B9008E7F1D
:101490008093B9008091B9008D7F8093B90088E472
:1014A0008093B80085E48093BC0080E090E00E94C7
:1014B0001708803A51F480E090E00E94670960E2EA
:1014C0008FE390E00E944A0911C068EE73E080E06B
:1014D00090E00E94DC0680E090E00E941708803ACD
:1014E00051F38BE793E00E94740745C080E090E0E1
:1014F0000E941708803A39F06AE070E080E090E0DE
:101500000E94DC06F3CF62E370E080E090E00E948E
:10151000DC0660E08EE390E00E944A096AE070E039
:1015200080E090E00E94DC0660E087E090E00E94AE
:101530004A0960E08FE390E00E944A096AE070E0A7
:1015400080E090E00E94DC068CE090E00E94670959
:1015500064E170E080E090E00E94DC0664EF71E0FE
:1015600080E090E00E94DC068E0109591F4FE12CBB
:10157000F12C680101C0FFCFC7010E940E15F801D0
:1015800081938F01FFEFEF1AFF0A84E0E816F10460
:1015900099F7BE01675D7F4F8DE595E00E94E902F6
:1015A0008EE491E00E94740769AD7AAD8BAD9CAD7D
:1015B0000E94300381E691E00E947407F60180806A
:1015C0009180A280B380C501B4010E94300389AD2F
:1015D0009AADABADBCAD88169906AA06BB0659F00C
:1015E00084E791E00E94760964EF71E080E090E08A
:1015F0000E94DC064CC18AEA91E00E9476096E01E5
:10160000F1E5CF0ED11C8601C7010E940E15F6012F
:1016100081936F01FFEFEF1AFF0A8AE1E816F104E8
:1016200099F788ED91E00E947407F80130812181DB
:10163000832F922FE3962FAFE397E2963FAFE29787
:101640000E94E10F8BE992E00E947407F80122806A
:101650003380C1010E94E10F8BE992E00E94740780
:10166000F80144805580C2010E94E10F8BE992E0AD
:101670000E94740788EE91E00E947407F80166806A
:101680007780C3010E94E10F8BE992E00E9474070A
:10169000F80180849184C4010E94E10F8BE992E0FB
:1016A0000E947407F801A284B384C5010E94E10F6F
:1016B0008BE992E00E94740780EF91E00E9474072A
:1016C000F801C484D584C6010E94E10F8BE992E041
:1016D0000E947407F801E684F784C7010E94E10FB5
:1016E0008BE992E00E947407F80140895189CA0190
:1016F000E0964FAFE097E1965FAFE1970E94E10F70
:101700008BE992E00E94740787EF91E00E947407D2
:10171000F801F289AC96FFAFAC97F801F389AD966A
:10172000FFAFAD97AC968FADAC979F2F0E94E10FA6
:1017300087E092E00E947407F801F489AE96FFAF4B
:10174000AE97F801F589AF96FFAFAF97AE968FAD24
:10175000AE979F2F0E94E10F85E192E00E947609EB
:10176000009165051091660580E090E00E94670990
:1017700069E170E080E090E00E94DC06E2963FAD17
:10178000E297632F85E590E00E944A09E3962FAD2A
:10179000E397622F86E590E00E944A09622D87E573
:1017A00090E00E944A09632D88E590E00E944A0972
:1017B000642D89E590E00E944A09652D8AE590E054
:1017C0000E944A09662D81E690E00E944A09672D31
:1017D00082E690E00E944A09682D83E690E00E942C
:1017E0004A09692D84E690E00E944A096A2D85E63F
:1017F00090E00E944A096B2D86E690E00E944A091B
:101800006C2D8BE590E00E944A096D2D8CE590E0EF
:101810000E944A096E2D8DE590E00E944A096F2DC5
:101820008EE590E00E944A09E0964FADE097642F64
:101830008FE590E00E944A09E1965FADE197652F40
:1018400080E690E00E944A09AC966FADAC9787E6BF
:1018500090E00E944A09AD966FADAD9788E690E0A2
:101860000E944A09AE966FADAE9789E690E00E945D
:101870004A09AF966FADAF978AE690E00E944A0999
:10188000C8010E94670983E492E00E94760968EE2D
:1018900073E080E090E00E94DC06BE016F5F7F4F46
:1018A0008DE595E00E94E90289E692E00E947609C2
:1018B0008EE892E00E947407CE0101960E9476099C
:1018C0008DE992E00E9474076D857E858F859889E9
:1018D0000E9430038CEA92E00E94740769897A8939
:1018E0008B899C890E9430038BEB92E00E947407E5
:1018F000698D7A8D8B8D9C8D42E050E00E943C0872
:101900008AEC92E00E9476098FEC92E00E947407C4
:101910006D8D7E8D8F8D98A142E050E00E943C0835
:101920008AEC92E00E9476098EED92E00E947407A4
:1019300069A17AA18BA19CA142E050E00E943C08E1
:101940008AEC92E00E94760989E692E00E9476098C
:101950008AEB93E00E94760964EF71E080E090E00A
:101960000E94DC0660E087E090E00E944A0989E37B
:1019700090E00E941708F82E86E390E00E94170876
:10198000082F8AE390E00E941708182F68EC70E097
:1019900080E090E00E94DC068AEB93E00E947609EA
:1019A0008DEE92E00E9474078F2D0E9484098FEFC4
:1019B00092E00E947407802F0E94840981E193E0E5
:1019C0000E947407812F0E9484098AEB93E00E9491
:1019D000760964EF71E080E090E00E94DC060091FF
:1019E00065051091660580E090E00E94670969E155
:1019F00070E080E090E00E94DC0660E087E090E02C
:101A00000E944A0960E88FE390E00E944A096AE078
:101A100070E080E090E00E94DC06C8010E94670947
:101A200064E170E080E090E00E94DC0683E293E0F5
:101A30000E9474073324339489EB94E00E94D3020C
:101A4000181619060CF0BBC080915C05882331F094
:101A500064E670E080E090E00E94DC061A82198261
:101A60001C821B821E821D8240E050E06AEB73E004
:101A7000CE0101960E9461010E94100997FD1EC0CF
:101A80008A309105D9F089A71AA60D811E810F5FB2
:101A90001F4FB801CE0101960E94BF00882361F359
:101AA00029813A818D819E81BE01675D7F4F820FC2
:101AB000931F0E94D4131E830D83DECF80915605A1
:101AC000909157050097C9F069817A816115710578
:101AD00091F040915805509159052D813E81421752
:101AE000530748F00E94D4138D819E8190935B052B
:101AF00080935A0518C00E945B1289819A81909345
:101B00005705809356058B819C819093590580934E
:101B100058058D819E8190935B0580935A051A82AA
:101B200019821C821B821E821D8289819A810E94D9
:101B30005B1280915A0590915B05892B39F10091D8
:101B400056051091570561E773E0C8010E94CB1359
:101B5000892B59F480915C058823C1F08BE293E0D6
:101B60000E94740710925C0511C06DE673E0C80115
:101B70000E94CB13892B51F480915C05811106C022
:101B800086E393E00E94740730925C051A82198202
:101B90001C821B821E821D82609156057091570522
:101BA0006115710541F040915A0550915B05CE01D8
:101BB00001960E94610189819A810E945B12809145
:101BC0005C058111FBC181E493E00E9474070E94CF
:101BD0000B014AE00E9433074AE150E06DE575E0F1
:101BE000CE018F5A9F4F0E94D8046596CCACDDACD5
:101BF000EEACFFAC659769964CAC5DAC6EAC7FAC5F
:101C000069976D968CAC9DACAEACBFAC6D972091D6
:101C1000EC033091ED034091EE035091EF03C701C7
:101C2000B6010E94EA138823C1F087E493E00E9482
:101C300074076091EC037091ED038091EE03909135
:101C4000EF0344E050E00E943C08C092EC03D092C5
:101C5000ED03E092EE03F092EF032091E803309160
:101C6000E9034091EA035091EB03C301B2010E94E2
:101C7000EA138823C1F08BE493E00E94740760911B
:101C8000E8037091E9038091EA039091EB0344E04B
:101C900050E00E943C084092E8035092E9036092B1
:101CA000EA037092EB032091E4033091E503409145
:101CB000E6035091E703C501B4010E94EA138823AB
:101CC000C1F08FE493E00E9474076091E403709187
:101CD000E5038091E6039091E70344E050E00E9421
:101CE0003C088092E4039092E503A092E603B09250
:101CF000E70344E150E06DE575E0CE0189960E946E
:101D0000D804C9A4DAA4EBA4FCA44DA45EA46FA4D7
:101D100078A889A89AA8ABA8BCA82091E003309124
:101D2000E1034091E2035091E303C701B6010E9431
:101D3000EA138823C1F083E593E00E947407609161
:101D4000E0037091E1038091E2039091E30344E0AA
:101D500050E00E943C08C092E003D092E103E09280
:101D6000E203F092E3032091DC033091DD03409124
:101D7000DE035091DF03C301B2010E94EA138823FE
:101D8000C1F087E593E00E9474076091DC037091D5
:101D9000DD038091DE039091DF0344E050E00E9478
:101DA0003C084092DC035092DD036092DE037092A7
:101DB000DF032091D8033091D9034091DA03509189
:101DC000DB03C501B4010E94EA138823C1F08BE54F
:101DD00093E00E9474076091D8037091D9038091B9
:101DE000DA039091DB0344E050E00E943C088092CB
:101DF000D8039092D903A092DA03B092DB0348E2B1
:101E000050E06DE575E0CE0101960E94D804C980CE
:101E1000DA80EB80FC804D805E806F8078848984DE
:101E20009A84AB84BC842091D4033091D503409133
:101E3000D6035091D703C701B6010E94EA13882345
:101E4000C1F08FE593E00E9474076091D403709114
:101E5000D5038091D6039091D70344E050E00E94CF
:101E60003C08C092D403D092D503E092D603F092FE
:101E7000D7032091D0033091D1034091D2035091E8
:101E8000D303C301B2010E94EA138823C1F083E6A1
:101E900093E00E9474076091D0037091D103809108
:101EA000D2039091D30344E050E00E943C0840925A
:101EB000D0035092D1036092D2037092D303209149
:101EC000CC033091CD034091CE035091CF03C50197
:101ED000B4010E94EA138823C1F087E693E00E94D0
:101EE00074076091CC037091CD038091CE039091E3
:101EF000CF0344E050E00E943C088092CC039092D3
:101F0000CD03A092CE03B092CF0385E390E00E9470
:101F10001708982F92959695969593709093CB036A
:101F2000282F30E0A90194E0559547959A95E1F75F
:101F300043704093CA0335952795359527952370AF
:101F40002093C90383708093C8038BE693E00E94BB
:101F500074076091CB0370E080E090E04AE00E945B
:101F600033078FE693E00E9474076091CA0370E024
:101F700080E090E04AE00E94330783E793E00E940C
:101F800074076091C90370E080E090E04AE00E942D
:101F9000330787E793E00E9474076091C80370E0FD
:101FA00080E090E04AE00E9433078AE00E94160732
:101FB0006AE070E080E090E00E94DC060E94DF02B0
:101FC0003BCDBC0180E090E04AE00C943307809167
:101FD0005605909157050C945B12CF92DF92EF92C9
:101FE000FF92CF93DF93EDEAF4E01382128288EE42
:101FF000C82E83E0D82EE12CF12CC482D582E68253
:10200000F7828AE091E091838083EDE5F5E08CE34F
:1020100091E09183808387E390E0A0E0B0E0848347
:102020009583A683B78388E28383E3EAF5E080E0C3
:1020300090E0A0E8BFE380839183A283B3831482FE
:1020400015821682178210861186128613861486D0
:1020500015861686178687E995E00E94D2048BE8DC
:1020600095E00E94D2048FE795E00E94D20483E7B6
:1020700095E00E94D20487E695E00E94D204E9EB45
:10208000F4E013821282C482D582E682F7828CE168
:1020900091E09183808385EC90E09587848784EC40
:1020A00090E09787868780EC90E0918B808B81EC25
:1020B00090E0938B828B82EC90E0958B848B86EC06
:1020C00090E0978B868B118E128E138E148EC6E540
:1020D000D5E0198218821B821A821D821C8240E080
:1020E00050E06AEB73E0CE010E94610140E050E0F5
:1020F0006AEB73E0CE010E94610181E08E83DF9183
:10210000CF91FF90EF90DF90CF900895A1E21A2E2B
:10211000AA1BBB1BFD010DC0AA1FBB1FEE1FFF1F8B
:10212000A217B307E407F50720F0A21BB30BE40BDB
:10213000F50B661F771F881F991F1A9469F7609522
:102140007095809590959B01AC01BD01CF010895DC
:10215000EE0FFF1F0590F491E02D09945058BB2716
:10216000AA270E94C6100C94D4140E94C61438F0FA
:102170000E94CD1420F039F49F3F19F426F40C94FA
:10218000C3140EF4E095E7FB0C94BD14E92F0E94F4
:10219000E51458F3BA17620773078407950720F010
:1021A00079F4A6F50C9407150EF4E0950B2EBA2FD2
:1021B000A02D0B01B90190010C01CA01A00111244D
:1021C000FF27591B99F0593F50F4503E68F11A16F9
:1021D000F040A22F232F342F4427585FF3CF46958A
:1021E00037952795A795F0405395C9F77EF41F16AC
:1021F000BA0B620B730B840BBAF09150A1F0FF0F76
:10220000BB1F661F771F881FC2F70EC0BA0F621F61
:10221000731F841F48F4879577956795B795F79551
:102220009E3F08F0B0CF9395880F08F09927EE0FE6
:102230009795879508950E942F110C94D4140E94AD
:10224000CD1458F00E94C61440F029F45F3F29F0E5
:102250000C94BD1451110C9408150C94C3140E94D5
:10226000E51468F39923B1F3552391F3951B550BAE
:10227000BB27AA2762177307840738F09F5F5F4F59
:10228000220F331F441FAA1FA9F335D00E2E3AF098
:10229000E0E832D091505040E695001CCAF72BD0B0
:1022A000FE2F29D0660F771F881FBB1F2617370701
:1022B0004807AB07B0E809F0BB0B802DBF01FF2733
:1022C00093585F4F3AF09E3F510578F00C94BD143F
:1022D0000C9408155F3FE4F3983ED4F38695779508
:1022E0006795B795F7959F5FC9F7880F911D9695EC
:1022F000879597F90895E1E0660F771F881FBB1F48
:10230000621773078407BA0720F0621B730B840BF4
:10231000BA0BEE1F88F7E09508950E94ED1488F03F
:102320009F5798F0B92F9927B751B0F0E1F0660F99
:10233000771F881F991F1AF0BA95C9F714C0B130DA
:1023400091F00E940715B1E008950C940715672FCE
:10235000782F8827B85F39F0B93FCCF38695779509
:102360006795B395D9F73EF49095809570956195F2
:102370007F4F8F4F9F4F08950E942C1408F48FEFCA
:1023800008950E942C14880B990B0895CF93DF9326
:102390008230910510F482E090E0E091B505F09173
:1023A000B60520E030E0C0E0D0E0309711F1408188
:1023B000518148175907C0F04817590761F48281C5
:1023C0009381209719F09B838A832BC09093B60545
:1023D0008093B50526C02115310519F04217530722
:1023E00018F49A01BE01DF01EF010280F381E02DB4
:1023F000DCCF2115310509F1281B390B24303105BB
:1024000090F412968D919C9113976115710521F0AE
:10241000FB019383828304C09093B6058093B50536
:10242000FD01329644C0FD01E20FF31F81939193A9
:10243000225031092D933C933AC02091B30530913D
:10244000B405232B41F42091020130910301309314
:10245000B4052093B30520910001309101012115AD
:10246000310541F42DB73EB740910401509105016B
:10247000241B350BE091B305F091B405E217F30787
:10248000A0F42E1B3F0B2817390778F0AC014E5FE4
:102490005F4F2417350748F04E0F5F1F5093B40568
:1024A0004093B3058193919302C0E0E0F0E0CF0147
:1024B000DF91CF9108950F931F93CF93DF930097F0
:1024C00009F48CC0FC013297138212820091B50589
:1024D0001091B6050115110581F420813181820F1B
:1024E000931F2091B3053091B4052817390779F56A
:1024F000F093B405E093B30571C0D80140E050E01B
:10250000AE17BF0750F412962D913C911397AD0171
:102510002115310509F1D901F3CF9D01DA0133838A
:10252000228360817181860F971F8217930769F458
:10253000EC0128813981260F371F2E5F3F4F3183F1
:1025400020838A819B8193838283452B29F4F09396
:10255000B605E093B50542C01396FC93EE9312972F
:10256000ED01499159919E01240F351FE217F307A0
:1025700071F480819181840F951F029611969C932E
:102580008E938281938113969C938E931297E0E0B1
:10259000F0E0D80112968D919C911397009719F055
:1025A000F8018C01F6CF8D919C9198012E5F3F4FE1
:1025B000820F931F2091B3053091B4052817390776
:1025C00069F4309729F41092B6051092B50502C04F
:1025D000138212821093B4050093B305DF91CF915B
:1025E0001F910F910895A0E0B0E0E9EFF2E10C94A3
:1025F0001A15EC01009721F4CB010E94C611B8C056
:10260000FC01E60FF71F9C0122503109E217F30786
:1026100008F4ACC0D9010D911C911197061717074A
:10262000B0F00530110508F49FC0C8010497861763
:10263000970708F499C002501109061B170B019364
:1026400011936D937C93CF010E945B128DC05B014F
:10265000A01AB10A4C01800E911EA091B505B0914F
:10266000B60540E050E0E12CF12C109709F44AC087
:10267000A815B905D1F56D907C901197630182E0A2
:10268000C80ED11CCA14DB0480F1A3014A195B09EE
:102690006A0182E0C80ED11C1296BC901297139664
:1026A000AC91B5E0CB16D10440F0B282A383518344
:1026B0004083D9016D937C930AC00E5F1F4FC30105
:1026C000800F911FF90191838083EB2DFA2FE11484
:1026D000F10431F0D7011396FC93EE93129744C0A6
:1026E000F093B605E093B5053FC08D919C9111978D
:1026F0004817590708F4AC017D0112960D90BC9162
:10270000A02DB3CF8091B3059091B405881599059C
:10271000E1F446175707C8F4809100019091010138
:10272000009741F48DB79EB7409104015091050187
:10273000841B950BE817F907C8F4F093B405E093F0
:10274000B305F901718360830FC0CB010E94C611EC
:102750007C01009759F0A801BE010E94C213CE016E
:102760000E945B12C70104C0CE0102C080E090E06D
:10277000CDB7DEB7EEE00C94361581E090E0F8942A
:102780000C944D15FB01DC0102C001900D924150EB
:102790005040D8F70895FB01DC018D91019080191C
:1027A0000110D9F3990B0895FB01DC0101900D9202
:1027B0000020E1F70895FB01DC014150504048F052
:1027C00001900D920020C9F701C01D924150504068
:1027D000E0F708950E942C1408F481E00895E8942D
:1027E00009C097FB3EF490958095709561957F4F59
:1027F0008F4F9F4F9923A9F0F92F96E9BB27939507
:10280000F695879577956795B795F111F8CFFAF416
:10281000BB0F11F460FF1BC06F5F7F4F8F4F9F4F47
:1028200016C0882311F096E911C0772321F09EE8A5
:10283000872F762F05C0662371F096E8862F70E00B
:1028400060E02AF09A95660F771F881FDAF7880FE5
:102850009695879597F90895990F0008550FAA0B3B
:10286000E0E8FEEF16161706E807F907C0F01216A3
:102870001306E407F50798F0621B730B840B950BA6
:1028800039F40A2661F0232B242B252B21F40895FB
:102890000A2609F4A140A6958FEF811D811D089598
:1028A0000E9463140C94D4140E94C61438F00E9441
:1028B000CD1420F0952311F00C94BD140C94C31486
:1028C00011240C9408150E94E51470F3959FC1F330
:1028D000950F50E0551F629FF001729FBB27F00DCE
:1028E000B11D639FAA27F00DB11DAA1F649F662723
:1028F000B00DA11D661F829F2227B00DA11D621F72
:10290000739FB00DA11D621F839FA00D611D221F2B
:10291000749F3327A00D611D231F849F600D211D0F
:10292000822F762F6A2F11249F5750409AF0F1F092
:1029300088234AF0EE0FFF1FBB1F661F771F881FFB
:1029400091505040A9F79E3F510580F00C94BD1462
:102950000C9408155F3FE4F3983ED4F38695779581
:102960006795B795F795E7959F5FC1F7FE2B880FA1
:10297000911D9695879597F9089597F99F6780E837
:1029800070E060E008959FEF80EC089500240A94C1
:102990001616170618060906089500240A9412163A
:1029A0001306140605060895092E0394000C11F46D
:1029B000882352F0BB0F40F4BF2B11F460FF04C01A
:1029C0006F5F7F4F8F4F9F4F089557FD9058440F73
:1029D000551F59F05F3F71F04795880F97FB991F7E
:1029E00061F09F3F79F0879508951216130614063B
:1029F000551FF2CF4695F1DF08C0161617061806C8
:102A0000991FF1CF86957105610508940895E894A2
:102A1000BB2766277727CB0197F90895F999FECF51
:102A200092BD81BDF89A992780B508952F923F9263
:102A30004F925F926F927F928F929F92AF92BF92CE
:102A4000CF92DF92EF92FF920F931F93CF93DF937A
:102A5000CDB7DEB7CA1BDB0B0FB6F894DEBF0FBED7
:102A6000CDBF09942A88398848885F846E847D8424
:102A70008C849B84AA84B984C884DF80EE80FD8026
:102A80000C811B81AA81B981CE0FD11D0FB6F8949C
:102A9000DEBF0FBECDBFED01089510E0C8E5D0E068
:102AA00004C0FE010E94A8102196C935D107C9F7BC
:042AB000F894FFCFC8
:102AB4000000B70580000000000072024202B0006E
:102AC40016023A0226021702000000007306840070
:102AD400A202BA06D302B102C5020000000000003F
:102AE4000000A102BD00BD0000000000D1042E03BF
:102AF400A102ED05E90268656C6C6F210A00424E83
:102B04004F3035352073656E736F722049443A2017
:102B140000454550524F4D2073656E736F722049C6
:102B2400443A20000A4E6F2043616C6962726174FA
:102B3400696F6E204461746120666F7220746869E5
:102B4400732073656E736F72206578697374732074
:102B5400696E20454550524F4D000A466F756E64AC
:102B64002043616C6962726174696F6E20666F7272
:102B740020746869732073656E736F7220696E20A8
:102B8400454550524F4D2E00416363656C65726F2D
:102B94006D657465723A20000A4779726F3A2000B5
:102BA4000A4D61673A20000A416363656C205261F3
:102BB400646975733A20000A4D6167205261646943
:102BC40075733A20000A0A526573746F72696E67EE
:102BD4002043616C6962726174696F6E2064617410
:102BE4006120746F2074686520424E4F3035352E55
:102BF4002E2E000A0A43616C6962726174696F6EF9
:102C04002064617461206C6F6164656420696E7412
:102C14006F20424E4F303535002D2D2D2D2D2D2D6D
:102C24002D2D2D2D2D2D2D2D2D2D2D2D2D2D2D2DD0
:102C34002D2D2D2D2D2D2D2D2D2D2D2D2D0053658F
:102C44006E736F723A202020202020200044726985
:102C5400766572205665723A20202000556E69719F
:102C640075652049443A20202020004D6178205683
:102C7400616C75653A202020200020787878004D1A
:102C8400696E2056616C75653A20202020005265DB
:102C9400736F6C7574696F6E3A20202000537973DA
:102CA40074656D205374617475733A2030780053E1
:102CB400656C6620546573743A2020202020307897
:102CC4000053797374656D204572726F723A2020D7
:102CD4003078007265616479210A000A7374617244
:102CE40074696E670A000A73746F7070696E670A9C
:102CF40000696D7509740009657A00096579000930
:102D0400657800096778000967790009677A00091E
:102D14006C7800096C7900096C7A000973730009F6
:102D24007367000973610009736D004F6F6F7073EF
:102D34002C206E6F20424E4F30353520646574650B
:102D440063746564202E2E2E20436865636B20799E
:102D54006F757220776972696E67206F72204932CD
:102D640043204144445221000D0A006E616E006903
:082D74006E66006F7666000038
:00000001FF
