:100000000C9459000C9481000C9481000C94810094
:100010000C9481000C9481000C9481000C9481005C
:100020000C9481000C9481000C9481000C9481004C
:100030000C9481000C9481000C9481000C9481003C
:100040000C9438040C9481000C94A8040C94820441
:100050000C9481000C9481000C9481000C9481001C
:100060000C94E8070C948100000000002500280093
:100070002B00040404040404040402020202020229
:10008000030303030303010204081020408001025C
:1000900004081020010204081020000000080002DB
:1000A0000100000304070000000000000000050E2E
:1000B000040E11241FBECFEFD8E0DEBFCDBF14E089
:1000C000A0E0B1E0ECE2F4E202C005900D92A837A6
:1000D000B107D9F725E0A8E7B4E001C01D92AC3E16
:1000E000B207E1F710E0C8E5D0E004C02197FE01B7
:1000F0000E94700EC735D107C9F70E943E090C94C3
:1001000009120C9400008091810490E020918204F7
:10011000821B910908953FB7F894809179049091DA
:100120007A04A0917B04B0917C0426B5A89B05C0FD
:100130002F3F19F00196A11DB11D3FBFBA2FA92F66
:10014000982F8827820F911DA11DB11DBC01CD01E3
:1001500042E0660F771F881F991F4A95D1F70895CF
:10016000CF92DF92EF92FF920F931F93CF93DF9383
:100170006C017A018B01C0E0D0E0CE15DF0589F07B
:10018000D8016D918D01D601ED91FC910190F08126
:10019000E02DC6010995892B11F47E0102C021963C
:1001A000ECCFC701DF91CF911F910F91FF90EF909E
:1001B000DF90CF900895089580E090E00895FC01CD
:1001C000538D448D252F30E0842F90E0821B930BBC
:1001D000541710F0CF96089501970895FC01918D62
:1001E000828D981761F0828DDF01A80FB11D5D9699
:1001F0008C91928D9F5F9F73928F90E008958FEF07
:100200009FEF0895FC01918D828D981731F0828DBA
:10021000E80FF11D858D90E008958FEF9FEF089511
:10022000FC01918D228D892F90E0805C9F4F821B75
:1002300091098F739927089586ED94E00E9410012B
:1002400021E0892B09F420E0822F0895FC01848DA0
:10025000DF01A80FB11DA35ABF4F2C91848D90E0F0
:1002600001968F739927848FA689B7892C93A089CB
:10027000B1898C9180648C93938D848D981306C082
:100280000288F389E02D80818F7D80830895EF922D
:10029000FF920F931F93CF93DF93EC0181E0888F40
:1002A0009B8D8C8D981305C0E889F989808185FD27
:1002B00024C0F62E0B8D10E00F5F1F4F0F73112718
:1002C000E02E8C8DE8120CC00FB607FCFACFE8893F
:1002D000F989808185FFF5CFCE010E942601F1CFFB
:1002E0008B8DFE01E80FF11DE35AFF4FF0820B8F5B
:1002F000EA89FB898081806207C0EE89FF8960837B
:10030000E889F98980818064808381E090E0DF91D1
:10031000CF911F910F91FF90EF900895CF93DF93AE
:10032000EC01888D8823C9F0EA89FB89808185FDED
:1003300005C0A889B9898C9186FD0FC00FB607FC4E
:10034000F5CF808185FFF2CFA889B9898C9185FF8F
:10035000EDCFCE010E942601E7CFDF91CF91089526
:1003600080E090E0892B29F00E941C0181110C94FF
:10037000000008950895CF92DF92EF92FF920F93BD
:100380001F93CF93DF937C01262F972F8A018091B3
:100390008304882391F0C62FD72F6E01C40ED51E7B
:1003A000CC15DD0571F06991D701ED91FC910190BB
:1003B000F081E02DC7010995F3CF642F822F0E94B1
:1003C0001609C801DF91CF911F910F91FF90EF9017
:1003D000DF90CF900895CF93DF931F92CDB7DEB714
:1003E0006983209183042223D1F02091A604203236
:1003F00040F021E030E0FC013383228380E090E094
:1004000015C080918404E82FF0E0EB57FB4F9981F1
:1004100090838F5F809384048093A60405C061E07D
:10042000CE0101960E94160981E090E00F90DF91C5
:10043000CF9108958F929F92AF92BF92CF92DF9209
:10044000EF92FF920F931F93CF93DF93CDB7DEB759
:1004500062970FB6F894DEBF0FBECDBF6C018B0163
:1004600084E2DB011D928A95E9F784E290E0A0E046
:10047000B0E0FB0180839183A283B383F601848182
:100480009581A681B781FB0184839583A683B78379
:1004900083E090E0A0E0B0E080879187A287B387F7
:1004A0002FB7F89480917D0490917E04A0917F04F1
:1004B000B09180042FBF808B918BA28BB38BFE01F8
:1004C00031968CE0DF011D928A95E9F77E01BDE04F
:1004D000EB0EF11C86E0F70111928A95E9F7D6013F
:1004E00013968C9191E0909383048093A5041092CD
:1004F00084041092A6046AE18AEC94E00E94EB0165
:1005000081E00E94CF0666E0F60183810E948B069F
:10051000109282048093810436E0D32EDE0C8AECA4
:1005200094E00E940005D7018D937D01DA12F7CF88
:100530006E8570E0762F66278D85682B072E000C60
:10054000880B990B0E948B0F20E030E040E85DE3C0
:100550000E9440104B015C01688970E0762F66278D
:100560008F85682B072E000C880B990B0E948B0F30
:1005700020E030E040E85DE30E9440106B017C0128
:100580008A8990E0982F88272989822BBC01990FAE
:10059000880B990B0E948B0F20E030E040E85DE370
:1005A0000E944010F801848A958AA68AB78AC08E74
:1005B000D18EE28EF38E648F758F868F978F81E058
:1005C00062960FB6F894DEBF0FBECDBFDF91CF911C
:1005D0001F910F91FF90EF90DF90CF90BF90AF9061
:1005E0009F908F9008950F931F93CF93DF938C016B
:1005F000EB0188E2FB0111928A95E9F74BE050E0AC
:1006000068E872E0CE010E94E4111B8681E090E070
:10061000A0E0B0E08C879D87AE87BF87F80184811A
:100620009581A681B781888B998BAA8BBB8B83E040
:1006300090E0A0E0B0E08C8B9D8BAE8BBF8B1CA2BA
:100640001DA21EA21FA2188E198E1A8E1B8E1C8E22
:100650001D8E1E8E1F8E8AE097EDA3E2BCE388A359
:1006600099A3AAA3BBA3DF91CF911F910F910895E6
:100670000E94DF110C944711CF93DF93EC0186E4C5
:1006800091E00E944906888199810E946E0781EC61
:1006900092E00E9449068A819B810E946E0781EC4C
:1006A00092E00E9449068C819D810E946E0781EC38
:1006B00092E00E94490686E591E00E9449068E81FB
:1006C0009F810E946E0781EC92E00E944906888516
:1006D00099850E946E0781EC92E00E9449068A8506
:1006E0009B850E946E0781EC92E00E9449068EE590
:1006F00091E00E9449068C859D850E946E0781ECE1
:1007000092E00E9449068E859F850E946E0781ECCB
:1007100092E00E944906888999890E946E0781ECBF
:1007200092E00E94490685E691E00E9449068A8986
:100730009B890E946E0785E791E00E9449068C899B
:100740009D89DF91CF910C946E070F931F93CF93E8
:10075000DF9385E390E00E942C07082F0295069511
:1007600006950370282F30E0A90194E05595479530
:100770009A95E1F7142F13703595279535952795A0
:10078000C22FC370D82FD37083E891E00E9449062E
:10079000011104C085E891E00E94490688E891E0D3
:1007A0000E944906602F70E080E090E04AE00E94DD
:1007B00034058DE891E00E944906612F70E080E0E9
:1007C00090E04AE00E94340581E991E00E944906E8
:1007D0006C2F70E080E090E04AE00E94340585E9EB
:1007E00091E00E9449066D2F70E080E090E04AE0C1
:1007F000DF91CF911F910F910C9434058F929F92AE
:10080000AF92BF92CF92DF92EF92FF926B017C0189
:100810000E948B004B015C01C114D104E104F1047E
:10082000F1F00E948B00DC01CB0188199909AA091B
:10083000BB09883E9340A105B10570F321E0C21ABF
:10084000D108E108F10888EE880E83E0981EA11C0B
:10085000B11CC114D104E104F10419F7DDCFFF90FC
:10086000EF90DF90CF90BF90AF909F908F900895C2
:100870001F920F920FB60F9211242F933F938F93D5
:100880009F93AF93BF9380917D0490917E04A0913C
:100890007F04B09180043091780423E0230F2D373A
:1008A00020F40196A11DB11D05C026E8230F029674
:1008B000A11DB11D2093780480937D0490937E0444
:1008C000A0937F04B09380048091790490917A047E
:1008D000A0917B04B0917C040196A11DB11D809371
:1008E000790490937A04A0937B04B0937C04BF9125
:1008F000AF919F918F913F912F910F900FBE0F90CD
:100900001F9018951F920F920FB60F9211242F93DC
:100910003F934F935F936F937F938F939F93AF9387
:10092000BF93EF93FF9386ED94E00E942601FF9121
:10093000EF91BF91AF919F918F917F916F915F9157
:100940004F913F912F910F900FBE0F901F901895D0
:100950001F920F920FB60F9211242F938F939F9394
:10096000EF93FF93E091E604F091E7048081E0913A
:10097000EC04F091ED0482FD12C090818091EF04AF
:100980008F5F8F732091F004821751F0E091EF0494
:10099000F0E0EA52FB4F958F8093EF0401C0808115
:1009A000FF91EF919F918F912F910F900FBE0F901C
:1009B0001F9018950895E091D604F091D704019006
:1009C000F081E02D682F86ED94E0099485ED809309
:1009D000BC008091BC0084FDFCCF1092C904089536
:1009E0000895E091820480918104E81730F4F0E0EA
:1009F000E955FB4F808190E008958FEF9FEF0895B8
:100A00009091820480918104981750F4E92FF0E0CE
:100A1000E955FB4F208130E09F5F9093820402C034
:100A20002FEF3FEFC9010895009769F0FC01019095
:100A30000020E9F73197AF01481B590BBC0186ED47
:100A400094E00C94B00080E090E00895CF93DF93A1
:100A50000E941405EC0189E694E00E9414058C0FB5
:100A60009D1FDF91CF9108958F929F92AF92BF9279
:100A70000F931F93CF93DF93CDB7DEB7A1970FB638
:100A8000F894DEBF0FBECDBF19A2423008F44AE091
:100A90008E010F5D1F4F842E912CA12CB12CA5012E
:100AA00094010E944E0EE62FB901CA0101501109AE
:100AB000EA3014F4E05D01C0E95CD801EC93232B2B
:100AC000242B252B61F7C8010E941405A1960FB6AF
:100AD000F894DEBF0FBECDBFDF91CF911F910F9174
:100AE000BF90AF909F908F9008954F925F926F92BA
:100AF0007F928F929F92AF92BF92CF92DF92EF92AE
:100B0000FF926B017C01B42E9B01AC010E94AD10E1
:100B1000882319F08CE694E027C026013701E89479
:100B200077F82FEF3FEF4FE75FE7C301B2010E9475
:100B3000AD1081110DC02FEF3FEF4FE75FE7C3010D
:100B4000B2010E94E30E18161CF480E794E00CC07A
:100B50002FEF3FEF4FE75FE4C701B6010E943B1064
:100B6000181684F484E794E0FF90EF90DF90CF9024
:100B7000BF90AF909F908F907F906F905F904F90BD
:100B80000C9414052FEF3FEF4FE75FECC701B60160
:100B90000E94E30E87FDE6CF20E030E0A901C70107
:100BA000B6010E94E30E87FF09C08DE20E94DB04BC
:100BB0004C01F7FAF094F7F8F09402C0812C912CD4
:100BC000A12C60E070E080E09FE3AB1440F420E0F3
:100BD00030E040E251E40E94E80EA394F6CF9B017E
:100BE000AC01C701B6010E94770E2B013C010E94A7
:100BF0005A0F6B017C010E94890F9B01AC01C3015C
:100C0000B2010E94760E2B013C014AE0C701B601F9
:100C10000E9434057C01E80CF91CBB2029F08EE20F
:100C20000E94DB04E80EF91EDB2CDD2021F120E020
:100C300030E040E251E4C301B2010E9440102B01B8
:100C40003C010E945A0F4B01A12CB12C4AE0C50176
:100C5000B4010E943405E80EF91EC501B4010E94DA
:100C6000890F9B01AC01C301B2010E94760E2B01DA
:100C70003C01DA94DACFC701FF90EF90DF90CF907C
:100C8000BF90AF909F908F907F906F905F904F90AC
:100C900008950C941405CF92DF92EF92FF92CF93B8
:100CA000DF936B017C0197FF12C08DE20E94DB0491
:100CB000EC0166277727CB016C197D098E099F0906
:100CC0004AE00E9434057C01EC0EFD1E04C04AE09F
:100CD0000E9434057C0189E694E00E9414058E0D83
:100CE0009F1DDF91CF91FF90EF90DF90CF900895FF
:100CF000CF93DF93682F70E080E090E040E10E94A6
:100D00003405EC0189E694E00E9414058C0F9D1FC8
:100D1000DF91CF9108959091C9049111FCCF91E09A
:100D20009093C9049093C8042FEF2093E705109285
:100D3000E605260F2093E5059093E4059091E405E0
:100D4000880F892B8093E4058091C704813061F47A
:100D50001092C7048091E4058093BB008091BC0091
:100D600083FDF8CF85EC01C085EE8093BC008091B7
:100D7000C9048130E1F38091E605861710F4609193
:100D8000E605A4ECB5E027EA34E0F9018E2F821BDA
:100D9000861718F48D918193F9CF862F0895382FF7
:100DA0002091A6049091A504213208F049C08091B9
:100DB000C9048111FCCF42E04093C9043093C804B8
:100DC0003FEF3093E7051092E6052093E505A5E88F
:100DD000B4E044EC55E0FA013E2F341B321718F40E
:100DE0003D913193F9CF1092E4052091E405990FDC
:100DF000922B9093E4059091C704913061F4109286
:100E0000C7049091E4059093BB009091BC0093FDC2
:100E1000F8CF95EC01C095EE9093BC009091C90479
:100E20009230E1F39091E7059F3F79F08091E705DB
:100E3000803241F08091E705803331F084E005C0D5
:100E400081E003C082E001C083E01092840410922C
:100E5000A604109283040895CF93DF93C3E7D5E0EF
:100E60009B8121E0209383049093A5041092840435
:100E70001092A604682F8AEC94E00E94EB0181E0B6
:100E80000E94CF0661E08B810E948B061092820443
:100E9000809381048AEC94E00E940005DF91CF9159
:100EA0000895CF93C62F9091760521E02093830477
:100EB0009093A504109284041092A604682F8AECE3
:100EC00094E00E94EB016C2F8AEC94E00E94EB010D
:100ED00081E00E94CF0681E0CF910895BC0180E0BF
:100EE00090E04AE00C943405E3E7F5E080879187D1
:100EF000682F8DE390E00E9451076EE170E080E082
:100F000090E00C94FE0385E390E00E942C07803C67
:100F1000B8F0282F30E0A90164E0559547956A950F
:100F2000E1F74370433061F4359527953595279562
:100F30002370233029F4982F937081E0933009F0C7
:100F400080E0089590E0FC01E656FF4F2491FC01FB
:100F5000EA57FF4F3491FC01EE58FF4FE491EE2326
:100F6000B1F1222339F1233091F038F42130A9F086
:100F7000223001F584B58F7D12C0273091F02830E2
:100F8000A1F02430B9F4809180008F7D03C080915E
:100F900080008F77809380000DC084B58F7784BDEB
:100FA00009C08091B0008F7703C08091B0008F7D21
:100FB0008093B000F0E0EE0FFF1FE859FF4FA591BE
:100FC000B4918FB7F894EC913E2B3C938FBF08956A
:100FD0001F920F920FB60F9211242F933F934F93AE
:100FE0005F936F937F938F939F93AF93BF93EF9391
:100FF000FF938091B900887F803609F49CC068F522
:10100000883209F45BC090F4803109F454C038F49C
:10101000882309F4F6C0883009F44DC0F6C0883141
:1010200009F44CC0803209F45DC0EFC0803409F48B
:1010300068C048F4803309F455C0883309F0E5C02E
:101040008093E705D8C0803509F44FC0883509F48E
:101050005DC0883409F0D9C0D6C0883909F4C7C04A
:10106000A8F4883709F467C038F4883609F463C0F7
:10107000803709F460C0C9C0883809F4B8C0803925
:1010800009F45FC0803809F0C0C05BC0803B09F440
:1010900086C038F4803A09F466C0883A09F47FC003
:1010A000B4C0803C09F4A7C0883C09F4A4C0883BC4
:1010B00009F48AC0AAC08091E40510C09091E605A9
:1010C0008091E505981770F5E091E60581E08E0FB7
:1010D0008093E605F0E0EC53FA4F80818093BB00EB
:1010E00085EC86C08093E7058EC0E091E60581E03F
:1010F0008E0F8093E6058091BB00F0E0EC53FA4F31
:1011000080839091E6058091E5056EC0E091E6054B
:1011100081E08E0F8093E6058091BB00F0E0EC53F8
:10112000FA4F80838091C80481116DC081E0809363
:10113000C70484EA61C083E08093C9041092C305A8
:10114000CFCF8091C305803208F051C0E091C30534
:1011500081E08E0F8093C3058091BB00F0E0ED55D8
:10116000FA4F8083BDCF85EC8093BC001092C904F8
:101170008091C305803230F4E091C305F0E0ED5575
:10118000FA4F10826091C30570E0E091A105F091E3
:10119000A20583EA95E009951092C30536C084E064
:1011A0008093C9041092A00510929F05E0919D05BF
:1011B000F0919E05099580919F05811105C081E000
:1011C00080939F0510927D05E091A00581E08E0F30
:1011D0008093A005F0E0E358FA4F80818093BB0034
:1011E0009091A00580919F05981708F479CF85E824
:1011F0008093BC000AC085EC8093BC001092C904A7
:1012000004C01092E7050E94E604FF91EF91BF91A0
:10121000AF919F918F917F916F915F914F913F918E
:101220002F910F900FBE0F901F90189540919F0522
:10123000262F30E0240F311D21323105DCF42091BE
:10124000C9042430C9F4FC0180E090E0861758F40A
:1012500030919F052191DC01A358BA4FA30FB11D16
:101260002C930196F3CF80919F05680F60939F05A3
:1012700080E0089581E0089582E00895CF93DF93A0
:10128000CDB7DEB7C158D1090FB6F894DEBF0FBE97
:10129000CDBF789484B5826084BD84B5816084BDFF
:1012A00085B5826085BD85B5816085BD80916E0004
:1012B000816080936E001092810080918100826035
:1012C0008093810080918100816080938100809172
:1012D00080008160809380008091B1008460809361
:1012E000B1008091B00081608093B00080917A005D
:1012F000846080937A0080917A00826080937A0083
:1013000080917A00816080937A0080917A00806871
:1013100080937A001092C100E091E604F091E70416
:1013200082E08083E091E204F091E3041082E09196
:10133000E404F091E50480E180831092EE04E091F2
:10134000EA04F091EB0486E08083E091E804F091F8
:10135000E904808180618083E091E804F091E904F0
:10136000808188608083E091E804F091E9048081C5
:1013700080688083E091E804F091E90480818F7DAA
:10138000808368EE73E080E090E00E94FE0389E9CC
:1013900091E00E94260584E891E00E9426051092C3
:1013A000820410928104109284041092A604109278
:1013B000C90481E08093C8041092C70482E10E94AE
:1013C000A20783E10E94A2078091B9008E7F8093DB
:1013D000B9008091B9008D7F8093B90088E4809333
:1013E000B80085E48093BC0080E090E00E942C0768
:1013F000803A51F480E090E00E94740760E28FE34D
:1014000090E00E94510711C068EE73E080E090E028
:101410000E94FE0380E090E00E942C07803A51F386
:101420008CE294E00E94490640C080E090E00E9477
:101430002C07803A39F06AE070E080E090E00E948A
:10144000FE03F3CF62E370E080E090E00E94FE03D1
:1014500060E08EE390E00E9451076AE070E080E077
:1014600090E00E94FE0360E087E090E00E94510758
:1014700060E08FE390E00E9451076AE070E080E056
:1014800090E00E94FE038CE090E00E94740764E10B
:1014900070E080E090E00E94FE036E018DE7C80ED0
:1014A000D11C8601E12CF12C01C0FFCFC7010E94A5
:1014B000F311F80181938F01FFEFEF1AFF0A84E027
:1014C000E816F10499F7BE01675D7F4F83E795E069
:1014D0000E94F30281EB91E00E94490669AD7AAD6A
:1014E0008BAD9CAD0E944B0684EC91E00E944906B6
:1014F000F60180809180A280B380C501B4010E9472
:101500004B0689AD9AADABADBCAD88169906AA065F
:10151000BB0661F087ED91E00E94260564EF71E063
:1015200080E090E00E94FE0310E0B7C08DE092E002
:101530000E9426055E01F7E6AF0EB11C8501C701CA
:101540000E94F311F50181935F01FFEFEF1AFF0A8B
:101550008AE1E816F10499F7C8010E943C038BE385
:1015600092E00E942605E0907B05F0907C0580E0EB
:1015700090E00E94740769E170E080E090E00E94D2
:10158000FE03F801608185E590E00E945107F801B3
:10159000618186E590E00E945107F801628187E54C
:1015A00090E00E945107F801638188E590E00E9475
:1015B0005107F801648189E590E00E945107F80124
:1015C00065818AE590E00E945107F801668181E615
:1015D00090E00E945107F801678182E690E00E9446
:1015E0005107F801608583E690E00E945107F801F9
:1015F000618584E690E00E945107F801628585E6E6
:1016000090E00E945107F801638586E690E00E9411
:101610005107F80164858BE590E00E945107F801BD
:1016200065858CE590E00E945107F80166858DE59F
:1016300090E00E945107F80167858EE590E00E94D6
:101640005107F80160898FE590E00E945107F80189
:10165000618980E690E00E945107F801628987E67F
:1016600090E00E945107F801638988E690E00E94AB
:101670005107F801648989E690E00E945107F8015A
:1016800065898AE690E00E945107C7010E947407AD
:1016900089E692E00E94260511E068EE73E080E0A2
:1016A00090E00E94FE03BE016F5F7F4F83E795E0ED
:1016B0000E94F3028FE892E00E94260584EB92E0FC
:1016C0000E944906CE0101960E94260583EC92E015
:1016D0000E9449066D857E858F8598890E944B06FC
:1016E00082ED92E00E94490669897A898B899C89FA
:1016F0000E944B0681EE92E00E944906698D7A8D28
:101700008B8D9C8D42E050E00E94750580EF92E049
:101710000E94260585EF92E00E9449066D8D7E8D20
:101720008F8D98A142E050E00E94750580EF92E015
:101730000E94260584E093E00E94490669A17AA1EF
:101740008BA19CA142E050E00E94750580EF92E0E1
:101750000E9426058FE892E00E94260584E891E029
:101760000E94260564EF71E080E090E00E94FE0395
:1017700060E087E090E00E94510789E390E00E94DA
:101780002C07E82E86E390E00E942C07F82E8AE3CF
:1017900090E00E942C07082F68EC70E080E090E059
:1017A0000E94FE0384E891E00E94260583E193E015
:1017B0000E9449068E2D0E94780685E293E00E94E1
:1017C00049068F2D0E94780687E393E00E94490620
:1017D000802F0E94780684E891E00E94260564EF3D
:1017E00071E080E090E00E94FE03E0907B05F090C5
:1017F0007C0580E090E00E94740769E170E080E081
:1018000090E00E94FE0360E087E090E00E945107B4
:1018100060E88FE390E00E9451076AE070E080E0AA
:1018200090E00E94FE03C7010E94740764E170E02B
:1018300080E090E00E94FE03BE016F5F7F4F83E770
:1018400095E00E941A02112309F4FFC089E493E095
:101850000E9426050E94830781110EC0BE016F5FA2
:101860007F4F83E795E00E941A0264E670E080E013
:1018700090E00E94FE03EECF89E793E00E942605E8
:1018800083E992E00E9426058CE893E00E942605F9
:101890000E948307882309F418C1E0907B05F0902B
:1018A0007C0580E090E00E94740769E170E080E0D0
:1018B00090E00E94FE0386E590E00E942C07182F1E
:1018C00085E590E00E942C07212F30E0322F22275F
:1018D000282B63963FAF2EAF639788E590E00E9478
:1018E0002C07182F87E590E00E942C07212F30E06D
:1018F000322F2227282B65963FAF2EAF65978AE5BA
:1019000090E00E942C07182F89E590E00E942C0798
:10191000212F30E0322F2227282B67963FAF2EAFA2
:10192000679782E690E00E942C07182F81E690E0EE
:101930000E942C07212F30E0322F2227282B699676
:101940003FAF2EAF699784E690E00E942C07182FD6
:1019500083E690E00E942C07212F30E0322F2227CF
:10196000282B6B963FAF2EAF6B9786E690E00E94D8
:101970002C07182F85E690E00E942C07212F30E0DD
:10198000322F2227282B6D963FAF2EAF6D978CE517
:1019900090E00E942C07182F8BE590E00E942C0706
:1019A000212F30E0322F2227282B6F963FAF2EAF0A
:1019B0006F978EE590E00E942C07182F8DE590E040
:1019C0000E942C07212F30E0322F2227282BA196AE
:1019D0003FAF2EAFA19780E690E00E942C07182F12
:1019E0008FE590E00E942C07212F30E0322F222734
:1019F000282BA3963FAF2EAFA39788E690E00E94D6
:101A00002C07182F87E690E00E942C07212F30E04A
:101A1000322F2227282BA5963FAF2EAFA5978AE617
:101A200090E00E942C07182F89E690E00E942C0776
:101A3000212F30E0322F2227282BA7963FAF2EAF41
:101A4000A797C7010E94740740C082EA93E00E94F2
:101A500026050E94830781110FCFBE016F5F7F4F64
:101A600083E795E00E941A028CEB93E00E944906FE
:101A70006D897E898F89988D44E050E00E947505BC
:101A800080EC93E00E944906698D7A8D8B8D9C8D48
:101A900044E050E00E94750585EC93E00E94490601
:101AA0006D8D7E8D8F8D98A144E050E00E9475056C
:101AB0000E94A50384E891E00E94260564E670E098
:101AC00080E090E00E94FE03C4CFCE018F5A9F4F6A
:101AD0000E943C038AEC93E00E942605BE01675DEC
:101AE0007F4F83E795E00E94F30289AD9AADABADDD
:101AF000BCADF60180839183A283B38300E010E044
:101B0000F60161916F01C801CF57DF4F6883C1585B
:101B1000D0400E94F311CF57DF4F6881C158D040A9
:101B2000681719F0C8010E94FB110F5F1F4F0430A6
:101B3000110531F78E010F5A1F4F84E0E82EF12C6A
:101B4000F80161918F01C701CF57DF4F6883C158FA
:101B5000D0400E94F311CF57DF4F6881C158D04069
:101B6000681719F0C7010E94FB11FFEFEF1AFF0A77
:101B70008AE1E816F10421F782EF93E00E9426053E
:101B800089E094E00E94260564EF71E080E090E037
:101B90000E94FE03BE016F5F7F4F83E795E00E94C6
:101BA0001A028CEB93E00E9449066D897E898F8929
:101BB000988D44E050E00E94750580EC93E00E940F
:101BC0004906698D7A8D8B8D9C8D44E050E00E9492
:101BD000750585EC93E00E9449066D8D7E8D8F8D95
:101BE00098A144E050E00E9475050E94A50384E896
:101BF00091E00E94260564E670E080E090E00E949B
:101C0000FE030E94B001C6CF0895EAECF4E013820F
:101C1000128288EE93E0A0E0B0E084839583A683EF
:101C2000B7832AE031E031832083E6EDF4E01382CC
:101C3000128284839583A683B7838CE191E091839C
:101C4000808385EC90E09587848784EC90E097878B
:101C5000868780EC90E0918B808B81EC90E0938B79
:101C6000828B82EC90E0958B848B86EC90E0978B56
:101C7000868B118E128E138E148EE3E7F5E08EE2C2
:101C800091E09183808387E390E0A0E0B0E08483DB
:101C90009583A683B78388E283830895A1E21A2EF1
:101CA000AA1BBB1BFD010DC0AA1FBB1FEE1FFF1F00
:101CB000A217B307E407F50720F0A21BB30BE40B50
:101CC000F50B661F771F881F991F1A9469F7609597
:101CD0007095809590959B01AC01BD01CF01089551
:101CE000EE0FFF1F0590F491E02D09945058BB278B
:101CF000AA270E948E0E0C9401100E94F30F38F058
:101D00000E94FA0F20F039F49F3F19F426F40C9446
:101D1000F00F0EF4E095E7FB0C94EA0FE92F0E9418
:101D2000121058F3BA17620773078407950720F05B
:101D300079F4A6F50C9434100EF4E0950B2EBA2F1E
:101D4000A02D0B01B90190010C01CA01A0011124C1
:101D5000FF27591B99F0593F50F4503E68F11A166D
:101D6000F040A22F232F342F4427585FF3CF4695FE
:101D700037952795A795F0405395C9F77EF41F1620
:101D8000BA0B620B730B840BBAF09150A1F0FF0FEA
:101D9000BB1F661F771F881FC2F70EC0BA0F621FD6
:101DA000731F841F48F4879577956795B795F795C6
:101DB0009E3F08F0B0CF9395880F08F09927EE0F5B
:101DC0009795879508950E94C60F08F481E00895BD
:101DD0000E94FC0E0C9401100E94FA0F58F00E9411
:101DE000F30F40F029F45F3F29F00C94EA0F5111F2
:101DF0000C9435100C94F00F0E94121068F3992384
:101E0000B1F3552391F3951B550BBB27AA276217F6
:101E10007307840738F09F5F5F4F220F331F441F03
:101E2000AA1FA9F335D00E2E3AF0E0E832D0915037
:101E30005040E695001CCAF72BD0FE2F29D0660F24
:101E4000771F881FBB1F261737074807AB07B0E867
:101E500009F0BB0B802DBF01FF2793585F4F3AF06D
:101E60009E3F510578F00C94EA0F0C9435105F3FBB
:101E7000E4F3983ED4F3869577956795B795F795F3
:101E80009F5FC9F7880F911D9695879597F90895DB
:101E9000E1E0660F771F881FBB1F62177307840777
:101EA000BA0720F0621B730B840BBA0BEE1F88F786
:101EB000E09508950E941A1088F09F5798F0B92F66
:101EC0009927B751B0F0E1F0660F771F881F991F6F
:101ED0001AF0BA95C9F714C0B13091F00E943410CD
:101EE000B1E008950C943410672F782F8827B85FDD
:101EF00039F0B93FCCF3869577956795B395D9F7C7
:101F00003EF490958095709561957F4F8F4F9F4FD0
:101F10000895E89409C097FB3EF4909580957095DC
:101F200061957F4F8F4F9F4F9923A9F0F92F96E925
:101F3000BB279395F695879577956795B795F1119A
:101F4000F8CFFAF4BB0F11F460FF1BC06F5F7F4F37
:101F50008F4F9F4F16C0882311F096E911C0772349
:101F600021F09EE8872F762F05C0662371F096E852
:101F7000862F70E060E02AF09A95660F771F881F21
:101F8000DAF7880F9695879597F90895990F0008C5
:101F9000550FAA0BE0E8FEEF16161706E807F9073B
:101FA000C0F012161306E407F50798F0621B730BD6
:101FB000840B950B39F40A2661F0232B242B252B57
:101FC00021F408950A2609F4A140A6958FEF811DFA
:101FD000811D089597F99F6780E870E060E008959B
:101FE0009FEF80EC089500240A9416161706180631
:101FF0000906089500240A9412161306140605060D
:102000000895092E0394000C11F4882352F0BB0F9D
:1020100040F4BF2B11F460FF04C06F5F7F4F8F4F00
:102020009F4F089557FD9058440F551F59F05F3F3B
:1020300071F04795880F97FB991F61F09F3F79F0EA
:1020400087950895121613061406551FF2CF46956C
:10205000F1DF08C0161617061806991FF1CF8695EE
:102060007105610508940895E894BB2766277727D2
:10207000CB0197F908950E94C60F08F48FEF0895D9
:102080000E9453100C9401100E94F30F38F00E942C
:10209000FA0F20F0952311F00C94EA0F0C94F00F36
:1020A00011240C9435100E94121070F3959FC1F307
:1020B000950F50E0551F629FF001729FBB27F00DF6
:1020C000B11D639FAA27F00DB11DAA1F649F66274B
:1020D000B00DA11D661F829F2227B00DA11D621F9A
:1020E000739FB00DA11D621F839FA00D611D221F54
:1020F000749F3327A00D611D231F849F600D211D38
:10210000822F762F6A2F11249F5750409AF0F1F0BA
:1021100088234AF0EE0FFF1FBB1F661F771F881F23
:1021200091505040A9F79E3F510580F00C94EA0F62
:102130000C9435105F3FE4F3983ED4F38695779581
:102140006795B795F795E7959F5FC1F7FE2B880FC9
:10215000911D9695879597F908950E94C60F880B53
:10216000990B0895CF93DF938230910510F482E0AC
:1021700090E0E091EA05F091EB0520E030E0C0E06E
:10218000D0E0309711F14081518148175907C0F0D4
:102190004817590761F482819381209719F09B8336
:1021A0008A832BC09093EB058093EA0526C0211506
:1021B000310519F04217530718F49A01BE01DF01E7
:1021C000EF010280F381E02DDCCF2115310509F10B
:1021D000281B390B2430310590F412968D919C9177
:1021E00013976115710521F0FB019383828304C06D
:1021F0009093EB058093EA05FD01329644C0FD0102
:10220000E20FF31F81939193225031092D933C9358
:102210003AC02091E8053091E905232B41F4209143
:102220000201309103013093E9052093E8052091E4
:102230000001309101012115310541F42DB73EB760
:102240004091040150910501241B350BE091E805F4
:10225000F091E905E217F307A0F42E1B3F0B2817B6
:10226000390778F0AC014E5F5F4F2417350748F00F
:102270004E0F5F1F5093E9054093E80581939193BA
:1022800002C0E0E0F0E0CF01DF91CF9108950F931D
:102290001F93CF93DF93009709F48CC0FC01329712
:1022A000138212820091EA051091EB0501151105C8
:1022B00081F420813181820F931F2091E8053091B4
:1022C000E9052817390779F5F093E905E093E80562
:1022D00071C0D80140E050E0AE17BF0750F412962D
:1022E0002D913C911397AD012115310509F1D901CB
:1022F000F3CF9D01DA013383228360817181860FE0
:10230000971F8217930769F4EC0128813981260F02
:10231000371F2E5F3F4F318320838A819B819383B8
:102320008283452B29F4F093EB05E093EA0542C044
:102330001396FC93EE931297ED01499159919E01EA
:10234000240F351FE217F30771F480819181840F08
:10235000951F029611969C938E938281938113967A
:102360009C938E931297E0E0F0E0D80112968D9145
:102370009C911397009719F0F8018C01F6CF8D917D
:102380009C9198012E5F3F4F820F931F2091E8058B
:102390003091E9052817390769F4309729F410922C
:1023A000EB051092EA0502C0138212821093E90530
:1023B0000093E805DF91CF911F910F91089581E07F
:1023C00090E0F8940C940912FB01DC01415050405C
:1023D00048F001900D920020C9F701C01D924150B4
:1023E0005040E0F70895F999FECF92BD81BDF89A6B
:1023F000992780B50895262FF999FECF1FBA92BD6F
:1024000081BD20BD0FB6F894FA9AF99A0FBE0196D5
:10241000089510E0C8E5D0E004C0FE010E94700EEF
:0C2420002196C935D107C9F7F894FFCF09
:10242C000000EC05800000000000EB01BB01DC00AB
:10243C00F00483000005F104000000004701B00027
:10244C00DF008E011001EE00020100000000DA0432
:10245C003A03BA011A02F302000000000000000067
:10246C00BA0138033803416363656C65726F6D653F
:10247C007465723A20000A4779726F3A20000A4D4F
:10248C0061673A20000A416363656C20526164699C
:10249C0075733A20000A4D61672052616469757347
:1024AC003A200009002120005379733A0020473A62
:1024BC000020413A00204D3A004F7269656E7461FC
:1024CC0074696F6E2053656E736F722054657374EC
:1024DC0000424E4F3035352073656E736F72204954
:1024EC00443A2000454550524F4D2073656E736F32
:1024FC00722049443A20000A4E6F2043616C696295
:10250C00726174696F6E204461746120666F722011
:10251C00746869732073656E736F72206578697364
:10252C00747320696E20454550524F4D000A466F1A
:10253C00756E642043616C6962726174696F6E20A0
:10254C00666F7220746869732073656E736F722086
:10255C00696E20454550524F4D2E000A0A52657344
:10256C00746F72696E672043616C69627261746921
:10257C006F6E206461746120746F207468652042F2
:10258C004E4F3035352E2E2E000A0A43616C69628F
:10259C00726174696F6E2064617461206C6F616428
:1025AC00656420696E746F20424E4F303535002DB6
:1025BC002D2D2D2D2D2D2D2D2D2D2D2D2D2D2D2D3F
:1025CC002D2D2D2D2D2D2D2D2D2D2D2D2D2D2D2D2F
:1025DC002D2D2D0053656E736F723A202020202014
:1025EC00202000447269766572205665723A20206C
:1025FC002000556E697175652049443A20202020D1
:10260C00004D61782056616C75653A2020202000C1
:10261C0020787878004D696E2056616C75653A208B
:10262C00202020005265736F6C7574696F6E3A20B0
:10263C0020200053797374656D2053746174757325
:10264C003A2030780053656C6620546573743A20D8
:10265C002020202030780053797374656D204572EA
:10266C00726F723A20203078004D6F76652073655A
:10267C006E736F7220736C696768746C7920746FF9
:10268C002063616C696272617465206D61676E654F
:10269C00746F6D6574657273000A46756C6C792085
:1026AC0063616C69627261746564210043616C6979
:1026BC0062726174696F6E20526573756C74733AD3
:1026CC002000506C656173652043616C69627261B6
:1026DC0074652053656E736F723A2000583A20006F
:1026EC0009593A2000095A3A20000A0A53746F72A9
:1026FC00696E672063616C6962726174696F6E20C8
:10270C006461746120746F20454550524F4D2E2EDC
:10271C002E00446174612073746F72656420746F51
:10272C0020454550524F4D2E000A2D2D2D2D2D2D6F
:10273C002D2D2D2D2D2D2D2D2D2D2D2D2D2D2D2DBD
:10274C002D2D2D2D2D2D2D2D2D2D0A004F6F6F7014
:10275C00732C206E6F20424E4F30353520646574DB
:10276C006563746564202E2E2E20436865636B2090
:10277C00796F757220776972696E67206F72204964
:10278C003243204144445221000D0A006E616E0018
:08279C00696E66006F766600AD
:00000001FF
