:100000000C9459000C9481000C9481000C94810094
:100010000C9481000C9481000C9481000C9481005C
:100020000C9481000C9481000C9481000C9481004C
:100030000C9481000C9481000C9481000C9481003C
:100040000C9454010C9481000C94EF010C94C901A0
:100050000C9481000C9481000C9481000C9481001C
:100060000C94AB030C9481000000000025002800D4
:100070002B00040404040404040402020202020229
:10008000030303030303010204081020408001025C
:1000900004081020010204081020000000080002DB
:1000A0000100000304070000000000000000CC0F66
:1000B000C60F11241FBECFEFD8E0DEBFCDBF13E0C7
:1000C000A0E0B1E0E8E6FAE202C005900D92A83C9B
:1000D000B107D9F725E0A8ECB3E001C01D92A73B1A
:1000E000B207E1F710E0C8E5D0E004C02197FE01B7
:1000F0000E948210C735D107C9F70E9497090C9456
:1001000027150C9400003FB7F8948091F503909167
:10011000F603A091F703B091F80326B5A89B05C09C
:100120002F3F19F00196A11DB11D3FBFBA2FA92F76
:10013000982F8827820F911DA11DB11DBC01CD01F3
:1001400042E0660F771F881F991F4A95D1F70895DF
:100150000895CF92DF92EF92FF920F931F93CF9368
:10016000DF936C017A018B01C0E0D0E0CE15DF0592
:1001700089F0D8016D918D01D601ED91FC9101902E
:10018000F081E02DC6010995892B11F47E0102C092
:100190002196ECCFC701DF91CF911F910F91FF9076
:1001A000EF90DF90CF900895089580E090E008955B
:1001B00008950C94351289EB94E00E94160321E017
:1001C000892B09F420E0822F08950E9497130F9342
:1001D0001F93CF93DF93EC0188819981009729F0D9
:1001E0002A813B812617370788F48B016F5F7F4F89
:1001F0000E94CD12009761F0998388831B830A8344
:100200002C813D81232B11F4FC01108281E001C07F
:1002100080E0DF91CF911F910F9108958F929F926F
:10022000AF92BF92CF92DF92EF92FF926B017C016F
:100230000E9483004B015C01C114D104E104F1046C
:10024000F1F00E948300DC01CB0188199909AA0909
:10025000BB09883E9340A105B10570F321E0C21AA5
:10026000D108E108F10888EE880E83E0981EA11CF1
:10027000B11CC114D104E104F10419F7DDCFFF90E2
:10028000EF90DF90CF90BF90AF909F908F900895A8
:100290002FB7F8946091F1037091F2038091F3030A
:1002A0009091F4032FBF08951F920F920FB60F92F3
:1002B00011242F933F938F939F93AF93BF9380917C
:1002C000F1039091F203A091F303B091F403309104
:1002D000F00323E0230F2D3720F40196A11DB11D5B
:1002E00005C026E8230F0296A11DB11D2093F0033F
:1002F0008093F1039093F203A093F303B093F4037C
:100300008091F5039091F603A091F703B091F80363
:100310000196A11DB11D8093F5039093F603A09360
:10032000F703B093F803BF91AF919F918F913F91E5
:100330002F910F900FBE0F901F901895EF92FF9284
:100340000F931F93CF93DF93EC017B018A01BA01D6
:100350000E94E7002881398181110DC021153105E6
:1003600019F0C9010E943512198218821D821C825F
:100370001B821A8206C01D830C83B701C9010E942B
:10038000AE13CE01DF91CF911F910F91FF90EF90AF
:1003900008951F920F920FB60F9211242F933F933F
:1003A0004F935F936F937F938F939F93AF93BF937D
:1003B000EF93FF9389EB94E00E945306FF91EF9136
:1003C000BF91AF919F918F917F916F915F914F916D
:1003D0003F912F910F900FBE0F901F9018951F9275
:1003E0000F920FB60F9211242F938F939F93EF9339
:1003F000FF93E091C904F091CA048081E091CF0499
:10040000F091D00482FD12C090818091D2048F5F60
:100410008F732091D304821751F0E091D204F0E061
:10042000E754FB4F958F8093D20401C08081FF91E8
:10043000EF919F918F912F910F900FBE0F901F9072
:10044000189508952CE0FC0111922A95E9F708957A
:1004500085ED8093BC008091BC0084FDFCCF1092A0
:10046000AC04089540911B04262F30E0240F311D69
:1004700021323105DCF42091AC042430C9F4FC01B4
:1004800080E090E0861758F430911B042191DC0144
:10049000A750BC4FA30FB11D2C930196F3CF8091B1
:1004A0001B04680F60931B0480E0089581E00895A9
:1004B00082E008950895E091410480914004E81796
:1004C00030F4F0E0EA59FB4F808190E008958FEF1F
:1004D0009FEF08959091410480914004981750F443
:1004E000E92FF0E0EA59FB4F208130E09F5F9093C5
:1004F000410402C02FEF3FEFC901089580914004ED
:1005000090E020914104821B91090895CF92DF92DF
:10051000EF92FF920F931F93CF93DF937C01262FCF
:10052000972F8A0180914204882391F0C62FD72FFC
:100530006E01C40ED51ECC15DD0571F06991D70191
:10054000ED91FC910190F081E02DC7010995F3CF69
:10055000642F822F0E943202C801DF91CF911F9138
:100560000F91FF90EF90DF90CF900895CF93DF939E
:100570001F92CDB7DEB76983209142042223D1F0C8
:1005800020916504203240F021E030E0FC0133830B
:10059000228380E090E015C080914304E82FF0E0D2
:1005A000EC5BFB4F998190838F5F80934304809332
:1005B000650405C061E0CE0101960E94320281E02F
:1005C00090E00F90DF91CF910895FC01538D448D01
:1005D000252F30E0842F90E0821B930B541710F0EE
:1005E000CF96089501970895FC01918D828D9817FB
:1005F00061F0828DDF01A80FB11D5D968C91928D07
:100600009F5F9F73928F90E008958FEF9FEF089503
:10061000FC01918D828D981731F0828DE80FF11DCC
:10062000858D90E008958FEF9FEF0895FC01918DE7
:10063000228D892F90E0805C9F4F821B91098F73E0
:100640009927089580E090E0892B29F00E94DB0033
:1006500081110C94000008950F931F93CF93DF93A3
:100660008C01EB0188E2FB0111928A95E9F74BE0DE
:1006700050E062E672E0CE010E94B5131B8681E075
:1006800090E0A0E0B0E08C879D87AE87BF87F8013F
:1006900084819581A681B781888B998BAA8BBB8B2E
:1006A00083E090E0A0E0B0E08C8B9D8BAE8BBF8BA5
:1006B0001CA21DA21EA21FA2188E198E1A8E1B8E9E
:1006C0001C8E1D8E1E8E1F8E8AE097EDA3E2BCE36A
:1006D00088A399A3AAA3BBA3DF91CF911F910F91E8
:1006E00008950F931F930E9448016093C104709373
:1006F000C2048093C3049093C404E091B904F091C0
:10070000BA040284F385E02D89EB94E0099597FF04
:100710001FC00E9448010091C1041091C2042091A1
:10072000C3043091C404DC01CB01801B910BA20BEC
:10073000B30B0091BD041091BE042091BF04309111
:10074000C00480179107A207B307B8F28FEF9FEF9D
:100750001F910F9108951F920F920FB60F921124BF
:100760002F933F934F935F936F937F938F939F93B9
:10077000AF93BF93EF93FF938091B900887F80364A
:1007800009F49CC068F5883209F45BC090F48031AC
:1007900009F454C038F4882309F4F6C0883009F409
:1007A0004DC0F6C0883109F44CC0803209F45DC0F8
:1007B000EFC0803409F468C048F4803309F455C0B0
:1007C000883309F0E5C08093AA04D8C0803509F4C5
:1007D0004FC0883509F45DC0883409F0D9C0D6C04F
:1007E000883909F4C7C0A8F4883709F467C038F419
:1007F000883609F463C0803709F460C0C9C08838FE
:1008000009F4B8C0803909F45FC0803809F0C0C06D
:100810005BC0803B09F486C038F4803A09F466C0B6
:10082000883A09F47FC0B4C0803C09F4A7C0883C72
:1008300009F4A4C0883B09F48AC0AAC08091A70427
:1008400010C09091A9048091A804981770F5E091C8
:10085000A90481E08E0F8093A904F0E0EA57FB4FD2
:1008600080818093BB0085EC86C08093AA048EC0F3
:10087000E091A90481E08E0F8093A9048091BB00D0
:10088000F0E0EA57FB4F80839091A9048091A8047F
:100890006EC0E091A90481E08E0F8093A90480913D
:1008A000BB00F0E0EA57FB4F80838091AB048111DD
:1008B0006DC081E08093A60484EA61C083E08093E8
:1008C000AC0410923F04CFCF80913F04803208F0F7
:1008D00051C0E0913F0481E08E0F80933F048091EE
:1008E000BB00F0E0E15EFB4F8083BDCF85EC8093E1
:1008F000BC001092AC0480913F04803230F4E0914F
:100900003F04F0E0E15EFB4F108260913F0470E035
:10091000E0911D04F0911E048FE194E0099510927E
:100920003F0436C084E08093AC0410921C04109203
:100930001B04E0911904F0911A04099580911B049D
:10094000811105C081E080931B041092F903E091AE
:100950001C0481E08E0F80931C04F0E0E750FC4FF4
:1009600080818093BB0090911C0480911B04981798
:1009700008F479CF85E88093BC000AC085EC8093A9
:10098000BC001092AC0404C01092AA040E94280279
:10099000FF91EF91BF91AF919F918F917F916F9157
:1009A0005F914F913F912F910F900FBE0F901F902D
:1009B0001895AF92BF92CF92DF92EF92FF920F9372
:1009C0001F93CF93DF9300D000D000D0CDB7DEB718
:1009D0007C016B015A010E9422028E010F5F1F4FA2
:1009E00086E0F80111928A95E9F7F601838191E09A
:1009F000909342048093640410924304109265041F
:100A00006A2D8DEA94E00E94B60281E00E94A3085C
:100A100066E0F60183810E945F0810924104809392
:100A2000400436E0D32ED00E8DEA94E00E946A0294
:100A3000F80181938F01DE12F7CF6A8170E0762F83
:100A400066278981682BCC80D12CDC2CCC248B812F
:100A5000C82A0E8110E0102F00278D81082BF4E1A9
:100A6000AF16B104D1F054F4E8E0AE16B10409F4C5
:100A700070C0FEE0AF16B104E9F19EC088E2A8168E
:100A8000B10409F466C0EEE2AE16B10409F461C027
:100A9000FAE1AF16B10471F18FC0072E000C880B7C
:100AA000990B0E94CB1320E030E041E654E40E9411
:100AB000F510F7016083718382839383B601DD0CA7
:100AC000880B990B0E94CB1320E030E041E654E400
:100AD0000E94F510F7016483758386839783B801BC
:100AE000110F880B990B0E94CB1320E030E041E6F8
:100AF00054E45BC0072E000C880B990B0E94CB13AB
:100B000020E030E040E85DE30E942A14F7016083B2
:100B1000718382839383B601DD0C880B990B0E944D
:100B2000CB1320E030E040E85DE30E942A14F70197
:100B30006483758386839783B801110F880B990BA3
:100B40000E94CB1320E030E040E85DE30E942A14CD
:100B50002EC0072E000C880B990B0E94CB1320E0AF
:100B600030E048EC52E40E94F510F7016083718395
:100B700082839383B601DD0C880B990B0E94CB1303
:100B800020E030E048EC52E40E94F510F701648365
:100B9000758386839783B801110F880B990B0E9488
:100BA000CB1320E030E048EC52E40E94F510F7014E
:100BB0006087718782879387C70126960FB6F8945E
:100BC000DEBF0FBECDBFDF91CF911F910F91FF9080
:100BD000EF90DF90CF90BF90AF900895EF92FF928B
:100BE0000F931F93CF93DF93CDB7DEB72C970FB63C
:100BF000F894DEBF0FBECDBF7C018B0184E2FB0108
:100C000011928A95E9F784E290E0A0E0B0E0FB0160
:100C100080839183A283B383F70184819581A68128
:100C2000B781FB0184839583A683B78383E090E03B
:100C3000A0E0B0E080879187A287B3870E94480137
:100C4000F801608B718B828B938B4AE150E0B70186
:100C5000CE0101960E94D90489819A81AB81BC8121
:100C6000F801848B958BA68BB78B8D819E81AF818C
:100C7000B885808F918FA28FB38F89859A85AB8538
:100C8000BC85848F958FA68FB78F81E02C960FB689
:100C9000F894DEBF0FBECDBFDF91CF911F910F91B2
:100CA000FF90EF900895FC01848DDF01A80FB11D26
:100CB000A35ABF4F2C91848D90E001968F73992792
:100CC000848FA689B7892C93A089B1898C9180647F
:100CD0008C93938D848D981306C00288F389E02D40
:100CE00080818F7D80830895EF92FF920F931F93F1
:100CF000CF93DF93EC0181E0888F9B8D8C8D9813CF
:100D000005C0E889F989808185FD24C0F62E0B8D08
:100D100010E00F5F1F4F0F731127E02E8C8DE8122C
:100D20000CC00FB607FCFACFE889F989808185FFEE
:100D3000F5CFCE010E945306F1CF8B8DFE01E80F57
:100D4000F11DE35AFF4FF0820B8FEA89FB89808106
:100D5000806207C0EE89FF896083E889F989808114
:100D60008064808381E090E0DF91CF911F910F91AB
:100D7000FF90EF900895CF93DF93EC01888D882347
:100D8000C9F0EA89FB89808185FD05C0A889B989F8
:100D90008C9186FD0FC00FB607FCF5CF808185FFD3
:100DA000F2CFA889B9898C9185FFEDCFCE010E9441
:100DB0005306E7CFDF91CF910895009769F0FC01CA
:100DC00001900020E9F73197AF01481B590BBC0196
:100DD00089EB94E00C94A90080E090E00895CF9313
:100DE000DF930E94DD06EC0188EB93E00E94DD06B4
:100DF0008C0F9D1FDF91CF910895E091B904F09180
:100E0000BA040190F081E02D682F89EB94E00994F9
:100E10008F929F92AF92BF920F931F93CF93DF93C6
:100E2000CDB7DEB7A1970FB6F894DEBF0FBECDBF2A
:100E300019A2423008F44AE08E010F5D1F4F842E44
:100E4000912CA12CB12CA50194010E946010E62FD9
:100E5000B901CA0101501109EA3014F4E05D01C082
:100E6000E95CD801EC93232B242B252B61F7C801D7
:100E70000E94DD06A1960FB6F894DEBF0FBECDBF6F
:100E8000DF91CF911F910F91BF90AF909F908F9066
:100E900008954F925F926F927F928F929F92AF923E
:100EA000BF92CF92DF92EF92FF926B017C01B42E42
:100EB0009B01AC010E949B11882319F08BEB93E0FE
:100EC00027C026013701E89477F82FEF3FEF4FE76F
:100ED0005FE7C301B2010E949B1181110DC02FEF8A
:100EE0003FEF4FE75FE7C301B2010E94C41318163A
:100EF0001CF48FEB93E00CC02FEF3FEF4FE75FE464
:100F0000C701B6010E949611181684F483EC93E091
:100F1000FF90EF90DF90CF90BF90AF909F908F9019
:100F20007F906F905F904F900C94DD062FEF3FEF16
:100F30004FE75FECC701B6010E94C41387FDE6CFFF
:100F400020E030E0A901C701B6010E94C41387FF69
:100F500009C08DE20E94FD064C01F7FAF094F7F803
:100F6000F09402C0812C912CA12C60E070E080E014
:100F70009FE3AB1440F420E030E040E251E40E94F3
:100F8000F510A394F6CF9B01AC01C701B6010E94F6
:100F900089102B013C010E9467116B017C010E94AA
:100FA000C9139B01AC01C301B2010E9488102B013F
:100FB0003C014AE0C701B6010E9408077C01E80C29
:100FC000F91CBB2029F08EE20E94FD06E80EF91EF6
:100FD000DB2CDD2021F120E030E040E251E4C301D0
:100FE000B2010E942A142B013C010E9467114B019F
:100FF000A12CB12C4AE0C501B4010E940807E80EFB
:10100000F91EC501B4010E94C9139B01AC01C301C3
:10101000B2010E9488102B013C01DA94DACFC7019B
:10102000FF90EF90DF90CF90BF90AF909F908F9008
:101030007F906F905F904F9008950C94DD06CF9253
:10104000DF92EF92FF92CF93DF936B017C0197FFCA
:1010500012C08DE20E94FD06EC0166277727CB01C6
:101060006C197D098E099F094AE00E9408077C01DE
:10107000EC0EFD1E04C04AE00E9408077C0188EBCC
:1010800093E00E94DD068E0D9F1DDF91CF91FF90B2
:10109000EF90DF90CF900895CF93DF93682F70E0AB
:1010A00080E090E040E10E940807EC0188EB93E0CB
:1010B0000E94DD068C0F9D1FDF91CF9108959091C6
:1010C000AC049111FCCF91E09093AC049093AB04ED
:1010D0002FEF2093AA041092A904260F2093A804AE
:1010E0009093A7049091A704880F892B8093A7045D
:1010F0008091A604813061F41092A6048091A70427
:101100008093BB008091BC0083FDF8CF85EC01C0CB
:1011100085EE8093BC008091AC048130E1F3809136
:10112000A904861710F46091A904A6E8B4E026E6A5
:1011300034E0F9018E2F821B861718F48D9181936C
:10114000F9CF862F0895382F20916504909164047B
:10115000213208F049C08091AC048111FCCF42E0FB
:101160004093AC043093AB043FEF3093AA04109249
:10117000A9042093A804A4E4B4E046E854E0FA01EA
:101180003E2F341B321718F43D913193F9CF109252
:10119000A7042091A704990F922B9093A7049091F4
:1011A000A604913061F41092A6049091A704909344
:1011B000BB009091BC0093FDF8CF95EC01C095EE7B
:1011C0009093BC009091AC049230E1F39091AA040A
:1011D0009F3F79F08091AA04803241F08091AA0467
:1011E000803331F084E005C081E003C082E001C0BB
:1011F00083E0109243041092650410924204089513
:10120000CF93DF93C2EAD5E09B8121E02093420493
:10121000909364041092430410926504682F8DEA41
:1012200094E00E94B60281E00E94A30861E08B81F5
:101230000E945F0810924104809340048DEA94E07C
:101240000E946A02DF91CF910895CF93C62F9091AB
:10125000A50521E020934204909364041092430476
:1012600010926504682F8DEA94E00E94B6026C2FFC
:101270008DEA94E00E94B60281E00E94A30881E01A
:10128000CF910895E2EAF5E080879187682F8DE39A
:1012900090E00E9425096EE170E080E090E00C94FF
:1012A0000E0190E0FC01E656FF4F2491FC01EA5745
:1012B000FF4F3491FC01EE58FF4FE491EE23B1F162
:1012C000222339F1233091F038F42130A9F0223073
:1012D00001F584B58F7D12C0273091F02830A1F040
:1012E0002430B9F4809180008F7D03C0809180000C
:1012F0008F77809380000DC084B58F7784BD09C03F
:101300008091B0008F7703C08091B0008F7D809373
:10131000B000F0E0EE0FFF1FE859FF4FA591B49128
:101320008FB7F894EC913E2B3C938FBF0895CF93E9
:10133000DF93CDB7DEB7C257D1090FB6F894DEBF41
:101340000FBECDBF789484B5826084BD84B58160C2
:1013500084BD85B5826085BD85B5816085BD809180
:101360006E00816080936E001092810080918100F8
:1013700082608093810080918100816080938100F0
:10138000809180008160809380008091B1008460B2
:101390008093B1008091B00081608093B000809113
:1013A0007A00846080937A0080917A0082608093D2
:1013B0007A0080917A00816080937A0080917A002F
:1013C000806880937A001092C100E091C904F09186
:1013D000CA0482E08083E091C504F091C6041082C3
:1013E000E091C704F091C80480E180831092D10499
:1013F000E091CD04F091CE0486E08083E091CB04AF
:10140000F091CC04808180618083E091CB04F091E5
:10141000CC04808188608083E091CB04F091CC047F
:10142000808180688083E091CB04F091CC0480813E
:101430008F7D808384E690E0A0E0B0E08093BD04DF
:101440009093BE04A093BF04B093C00486E491E0DF
:101450000E941D0868EE73E080E090E00E940E019B
:1014600010924104109240041092430410926504BB
:101470001092AC0481E08093AB041092A60482E148
:101480000E94510983E10E9451098091B9008E7F29
:101490008093B9008091B9008D7F8093B90088E472
:1014A0008093B80085E48093BC0080E090E00E94C7
:1014B0000009803A51F480E090E00E94420960E225
:1014C0008FE390E00E94250911C068EE73E080E090
:1014D00090E00E940E0180E090E00E940009803AB6
:1014E00051F38BE793E00E941D0845C080E090E037
:1014F0000E940009803A39F06AE070E080E090E0F4
:101500000E940E01F3CF62E370E080E090E00E9461
:101510000E0160E08EE390E00E9425096AE070E031
:1015200080E090E00E940E0160E087E090E00E9481
:10153000250960E08FE390E00E9425096AE070E0F1
:1015400080E090E00E940E018CE090E00E94420951
:1015500064E170E080E090E00E940E0164EF71E0D1
:1015600080E090E00E940E018E0109591F4FE12C8E
:10157000F12C680101C0FFCFC7010E94E814F801F7
:1015800081938F01FFEFEF1AFF0A84E0E816F10460
:1015900099F7BE01675D7F4F82EA95E00E942C03B8
:1015A0008EE491E00E941D0869AD7AAD8BAD9CADD3
:1015B0000E941F0881E691E00E941D08F6018080CC
:1015C0009180A280B380C501B4010E941F0889AD3B
:1015D0009AADABADBCAD88169906AA06BB0659F00C
:1015E00084E791E00E94EF0664EF71E080E090E014
:1015F0000E940E014CC18AEA91E00E94EF066E0142
:10160000F1E5CF0ED11C8601C7010E94E814F60156
:1016100081936F01FFEFEF1AFF0A8AE1E816F104E8
:1016200099F788ED91E00E941D08F8013081218131
:10163000832F922FE3962FAFE397E2963FAFE29787
:101640000E945A108BE992E00E941D08F801228046
:101650003380C1010E945A108BE992E00E941D085C
:10166000F80144805580C2010E945A108BE992E033
:101670000E941D0888EE91E00E941D08F801668016
:101680007780C3010E945A108BE992E00E941D08E6
:10169000F80180849184C4010E945A108BE992E081
:1016A0000E941D08F801A284B384C5010E945A104B
:1016B0008BE992E00E941D0880EF91E00E941D08D6
:1016C000F801C484D584C6010E945A108BE992E0C7
:1016D0000E941D08F801E684F784C7010E945A1091
:1016E0008BE992E00E941D08F80140895189CA01E6
:1016F000E0964FAFE097E1965FAFE1970E945A10F6
:101700008BE992E00E941D0887EF91E00E941D087E
:10171000F801F289AC96FFAFAC97F801F389AD966A
:10172000FFAFAD97AC968FADAC979F2F0E945A102C
:1017300087E092E00E941D08F801F489AE96FFAFA1
:10174000AE97F801F589AF96FFAFAF97AE968FAD24
:10175000AE979F2F0E945A1085E192E00E94EF06FB
:101760000091AA051091AB0580E090E00E9442092B
:1017700069E170E080E090E00E940E01E2963FADEA
:10178000E297632F85E590E00E942509E3962FAD4F
:10179000E397622F86E590E00E942509622D87E598
:1017A00090E00E942509632D88E590E00E942509BC
:1017B000642D89E590E00E942509652D8AE590E079
:1017C0000E942509662D81E690E00E942509672D7B
:1017D00082E690E00E942509682D83E690E00E9451
:1017E0002509692D84E690E00E9425096A2D85E689
:1017F00090E00E9425096B2D86E690E00E94250965
:101800006C2D8BE590E00E9425096D2D8CE590E014
:101810000E9425096E2D8DE590E00E9425096F2D0F
:101820008EE590E00E942509E0964FADE097642F89
:101830008FE590E00E942509E1965FADE197652F65
:1018400080E690E00E942509AC966FADAC9787E6E4
:1018500090E00E942509AD966FADAD9788E690E0C7
:101860000E942509AE966FADAE9789E690E00E9482
:101870002509AF966FADAF978AE690E00E942509E3
:10188000C8010E94420983E492E00E94EF0668EEDC
:1018900073E080E090E00E940E01BE016F5F7F4F19
:1018A00082EA95E00E942C0389E692E00E94EF060E
:1018B0008EE892E00E941D08CE0101960E94EF067C
:1018C0008DE992E00E941D086D857E858F8598893F
:1018D0000E941F088CEA92E00E941D0869897A899B
:1018E0008B899C890E941F088BEB92E00E941D0847
:1018F000698D7A8D8B8D9C8D42E050E00E94490766
:101900008AEC92E00E94EF068FEC92E00E941D08A4
:101910006D8D7E8D8F8D98A142E050E00E94490729
:101920008AEC92E00E94EF068EED92E00E941D0884
:1019300069A17AA18BA19CA142E050E00E944907D5
:101940008AEC92E00E94EF0689E692E00E94EF06A0
:101950008AEB93E00E94EF0664EF71E080E090E094
:101960000E940E0160E087E090E00E94250989E373
:1019700090E00E940009F82E86E390E00E940009A2
:10198000082F8AE390E00E940009182F68EC70E0AD
:1019900080E090E00E940E018AEB93E00E94EF0647
:1019A0008DEE92E00E941D088F2D0E944C088FEF53
:1019B00092E00E941D08802F0E944C0881E193E074
:1019C0000E941D08812F0E944C088AEB93E00E9420
:1019D000EF0664EF71E080E090E00E940E0100915C
:1019E000AA051091AB0580E090E00E94420969E1F0
:1019F00070E080E090E00E940E0160E087E090E0FF
:101A00000E94250960E88FE390E00E9425096AE0C2
:101A100070E080E090E00E940E01C8010E9442093F
:101A200064E170E080E090E00E940E0183E293E0C8
:101A30000E941D083324339489EB94E00E9416031E
:101A4000181619060CF0A0C08091B205882331F059
:101A500064E670E080E090E00E940E011A82198234
:101A60001C821B821E821D8240E050E06AEB73E004
:101A7000CE0101960E949E010E94710397FD1EC037
:101A80008A309105D9F089A71AA60D811E810F5FB2
:101A90001F4FB801CE0101960E94E700882361F331
:101AA00029813A818D819E81BE01675D7F4F820FC2
:101AB000931F0E94AE131E830D83DECF8091AC0571
:101AC0009091AD050097C9F069817A816115710522
:101AD00091F04091AE055091AF052D813E814217A6
:101AE000530748F00E94AE138D819E819093B105FB
:101AF0008093B00518C00E94351289819A81909315
:101B0000AD058093AC058B819C819093AF0580934C
:101B1000AE058D819E819093B1058093B0051A82A8
:101B200019821C821B821E821D8289819A810E94D9
:101B300035128091B0059091B105892B29F1C090A3
:101B4000AC05D090AD0561E773E0C6010E94A51316
:101B50001091B205892B49F41123B1F08BE293E087
:101B60000E941D081092B2050FC06DE673E0C60119
:101B70000E94A513892B41F4111106C086E393E05E
:101B80000E941D083092B2058091B2058111FBC1FF
:101B900081E493E00E941D080E9448014AE00E94EF
:101BA00008074AE150E062EA75E0CE018F5A9F4F84
:101BB0000E94D9046596CCACDDACEEACFFAC659769
:101BC00069964CAC5DAC6EAC7FAC69976D968CAC95
:101BD0009DACAEACBFAC6D972091EC033091ED03A2
:101BE0004091EE035091EF03C701B6010E94C41368
:101BF0008823C1F087E493E00E941D086091EC0304
:101C00007091ED038091EE039091EF0344E050E07A
:101C10000E944907C092EC03D092ED03E092EE03DC
:101C2000F092EF032091E8033091E9034091EA0339
:101C30005091EB03C301B2010E94C4138823C1F089
:101C40008BE493E00E941D086091E8037091E90322
:101C50008091EA039091EB0344E050E00E94490731
:101C60004092E8035092E9036092EA037092EB031A
:101C70002091E4033091E5034091E6035091E7039E
:101C8000C501B4010E94C4138823C1F08FE493E01E
:101C90000E941D086091E4037091E5038091E603C2
:101CA0009091E70344E050E00E9449078092E403EA
:101CB0009092E503A092E603B092E70344E150E07E
:101CC00062EA75E0CE0189960E94D904C9A4DAA41B
:101CD000EBA4FCA44DA45EA46FA478A889A89AA83C
:101CE000ABA8BCA82091E0033091E1034091E2034E
:101CF0005091E303C701B6010E94C4138823C1F0C9
:101D000083E593E00E941D086091E0037091E10378
:101D10008091E2039091E30344E050E00E94490780
:101D2000C092E003D092E103E092E203F092E30379
:101D30002091DC033091DD034091DE035091DF03FD
:101D4000C301B2010E94C4138823C1F087E593E068
:101D50000E941D086091DC037091DD038091DE0319
:101D60009091DF0344E050E00E9449074092DC0379
:101D70005092DD036092DE037092DF032091D8035E
:101D80003091D9034091DA035091DB03C501B401CE
:101D90000E94C4138823C1F08BE593E00E941D08C4
:101DA0006091D8037091D9038091DA039091DB039D
:101DB00044E050E00E9449078092D8039092D903F2
:101DC000A092DA03B092DB0348E250E062EA75E0E9
:101DD000CE0101960E94D904C980DA80EB80FC8094
:101DE0004D805E806F80788489849A84AB84BC84C3
:101DF0002091D4033091D5034091D6035091D7035D
:101E0000C701B6010E94C4138823C1F08FE593E097
:101E10000E941D086091D4037091D5038091D60370
:101E20009091D70344E050E00E944907C092D40348
:101E3000D092D503E092D603F092D7032091D0033D
:101E40003091D1034091D2035091D303C301B20129
:101E50000E94C4138823C1F083E693E00E941D080A
:101E60006091D0037091D1038091D2039091D303FC
:101E700044E050E00E9449074092D0035092D103C1
:101E80006092D2037092D3032091CC033091CD03A2
:101E90004091CE035091CF03C501B4010E94C413F9
:101EA0008823C1F087E693E00E941D086091CC036F
:101EB0007091CD038091CE039091CF0344E050E028
:101EC0000E9449078092CC039092CD03A092CE034A
:101ED000B092CF0385E390E00E940009982F92957D
:101EE0009695969593709093CB03282F30E0A90197
:101EF00094E0559547959A95E1F743704093CA034E
:101F0000359527953595279523702093C9038370C0
:101F10008093C8038BE693E00E941D086091CB0379
:101F200070E080E090E04AE00E9408078FE693E0CE
:101F30000E941D086091CA0370E080E090E04AE0D2
:101F40000E94080783E793E00E941D086091C9037F
:101F500070E080E090E04AE00E94080787E793E0A5
:101F60000E941D086091C80370E080E090E04AE0A4
:101F70000E9408078AE00E94FD066AE070E080E0A7
:101F800090E00E940E010E94220356CD8091AC0584
:101F90009091AD050C943512CF93DF93EDEAF4E008
:101FA0001382128288EE93E0A0E0B0E084839583F0
:101FB000A683B7832AE031E031832083E9EBF4E0A4
:101FC0001382128284839583A683B7838CE191E088
:101FD0009183808385EC90E09587848784EC90E002
:101FE0009787868780EC90E0918B808B81EC90E0E6
:101FF000938B828B82EC90E0958B848B86EC90E0C7
:10200000978B868B118E128E138E148ECCEAD5E0B0
:10201000198218821B821A821D821C8240E050E0C5
:102020006AEB73E0CE010E949E0140E050E06AEB53
:1020300073E0CE010E949E0181E08E83E2EAF5E02A
:102040008EE291E09183808387E390E0A0E0B0E0AE
:1020500084839583A683B78388E28383E2E9F5E0EE
:1020600080E090E0A0E8BFE380839183A283B38304
:1020700014821582168217821086118612861386A4
:10208000148615861686178686E895E00E94220239
:102090008AE795E00E9422028EE695E00E942202E5
:1020A00082E695E00E94220286E595E0DF91CF91DD
:1020B0000C942202BC0180E090E04AE00C940807F6
:1020C000A1E21A2EAA1BBB1BFD010DC0AA1FBB1F3C
:1020D000EE1FFF1FA217B307E407F50720F0A21BAE
:1020E000B30BE40BF50B661F771F881F991F1A941B
:1020F00069F760957095809590959B01AC01BD0145
:10210000CF010895EE0FFF1F0590F491E02D099483
:102110005058BB27AA270E94A0100C94AE140E940E
:10212000A01438F00E94A71420F039F49F3F19F44E
:1021300026F40C949D140EF4E095E7FB0C94971490
:10214000E92F0E94BF1458F3BA1762077307840778
:10215000950720F079F4A6F50C94E1140EF4E095BF
:102160000B2EBA2FA02D0B01B90190010C01CA0151
:10217000A0011124FF27591B99F0593F50F4503EFC
:1021800068F11A16F040A22F232F342F4427585FEE
:10219000F3CF469537952795A795F0405395C9F706
:1021A0007EF41F16BA0B620B730B840BBAF09150BE
:1021B000A1F0FF0FBB1F661F771F881FC2F70EC05D
:1021C000BA0F621F731F841F48F487957795679530
:1021D000B795F7959E3F08F0B0CF9395880F08F01C
:1021E0009927EE0F9795879508950E9409110C94F1
:1021F000AE140E94A71458F00E94A01440F029F4D5
:102200005F3F29F00C94971451110C94E2140C9434
:102210009D140E94BF1468F39923B1F3552391F3E1
:10222000951B550BBB27AA2762177307840738F045
:102230009F5F5F4F220F331F441FAA1FA9F335D0A2
:102240000E2E3AF0E0E832D091505040E695001C56
:10225000CAF72BD0FE2F29D0660F771F881FBB1F10
:10226000261737074807AB07B0E809F0BB0B802DEE
:10227000BF01FF2793585F4F3AF09E3F510578F01A
:102280000C9497140C94E2145F3FE4F3983ED4F35B
:10229000869577956795B795F7959F5FC9F7880FEE
:1022A000911D9695879597F90895E1E0660F771F40
:1022B000881FBB1F621773078407BA0720F0621BD1
:1022C000730B840BBA0BEE1F88F7E09508950E94FC
:1022D000C71488F09F5798F0B92F9927B751B0F0DD
:1022E000E1F0660F771F881F991F1AF0BA95C9F79A
:1022F00014C0B13091F00E94E114B1E008950C9443
:10230000E114672F782F8827B85F39F0B93FCCF3F5
:10231000869577956795B395D9F73EF49095809516
:10232000709561957F4F8F4F9F4F08950E940614BF
:1023300008F48FEF08950E940614880B990B0895F6
:10234000CF93DF938230910510F482E090E0E0912A
:10235000B505F091B60520E030E0C0E0D0E0309760
:1023600011F14081518148175907C0F048175907AA
:1023700061F482819381209719F09B838A832BC01B
:102380009093B6058093B50526C02115310519F047
:102390004217530718F49A01BE01DF01EF010280D2
:1023A000F381E02DDCCF2115310509F1281B390B14
:1023B0002430310590F412968D919C9113976115FC
:1023C000710521F0FB019383828304C09093B605CD
:1023D0008093B505FD01329644C0FD01E20FF31F65
:1023E00081939193225031092D933C933AC02091CF
:1023F000B3053091B405232B41F4209102013091B3
:1024000003013093B4052093B3052091000130916E
:1024100001012115310541F42DB73EB7409104016A
:1024200050910501241B350BE091B305F091B405E3
:10243000E217F307A0F42E1B3F0B2817390778F09B
:10244000AC014E5F5F4F2417350748F04E0F5F1FFA
:102450005093B4054093B3058193919302C0E0E09B
:10246000F0E0CF01DF91CF9108950F931F93CF93A9
:10247000DF93009709F48CC0FC013297138212821B
:102480000091B5051091B6050115110581F4208163
:102490003181820F931F2091B3053091B405281725
:1024A000390779F5F093B405E093B30571C0D8010D
:1024B00040E050E0AE17BF0750F412962D913C91CA
:1024C0001397AD012115310509F1D901F3CF9D0114
:1024D000DA013383228360817181860F971F82170F
:1024E000930769F4EC0128813981260F371F2E5F8D
:1024F0003F4F318320838A819B8193838283452B45
:1025000029F4F093B605E093B50542C01396FC9309
:10251000EE931297ED01499159919E01240F351FB9
:10252000E217F30771F480819181840F951F029661
:1025300011969C938E938281938113969C938E9394
:102540001297E0E0F0E0D80112968D919C911397DC
:10255000009719F0F8018C01F6CF8D919C919801AC
:102560002E5F3F4F820F931F2091B3053091B4052A
:102570002817390769F4309729F41092B60510929C
:10258000B50502C0138212821093B4050093B305FF
:10259000DF91CF911F910F910895A0E0B0E0E3ED9E
:1025A000F2E10C94F414EC01009721F4CB010E94A9
:1025B000A011B8C0FC01E60FF71F9C0122503109A1
:1025C000E217F30708F4ACC0D9010D911C911197E3
:1025D00006171707B0F00530110508F49FC0C801B1
:1025E00004978617970708F499C002501109061B33
:1025F000170B019311936D937C93CF010E943512B9
:102600008DC05B01A01AB10A4C01800E911EA091F1
:10261000B505B091B60540E050E0E12CF12C1097E3
:1026200009F44AC0A815B905D1F56D907C901197B1
:10263000630182E0C80ED11CCA14DB0480F1A3013F
:102640004A195B096A0182E0C80ED11C1296BC903F
:1026500012971396AC91B5E0CB16D10440F0B2823C
:10266000A38351834083D9016D937C930AC00E5F8D
:102670001F4FC301800F911FF90191838083EB2DC0
:10268000FA2FE114F10431F0D7011396FC93EE9385
:10269000129744C0F093B605E093B5053FC08D9105
:1026A0009C9111974817590708F4AC017D011296C7
:1026B0000D90BC91A02DB3CF8091B3059091B4053E
:1026C00088159905E1F446175707C8F48091000171
:1026D00090910101009741F48DB79EB7409104019C
:1026E00050910501841B950BE817F907C8F4F09386
:1026F000B405E093B305F901718360830FC0CB018A
:102700000E94A0117C01009759F0A801BE010E940F
:102710009C13CE010E943512C70104C0CE0102C035
:1027200080E090E0CDB7DEB7EEE00C94101581E0CC
:1027300090E0F8940C942715FB01DC0102C0019095
:102740000D9241505040D8F70895FB01DC018D9166
:10275000019080190110D9F3990B0895FB01DC0158
:1027600001900D920020E1F70895FB01DC0141503A
:10277000504048F001900D920020C9F701C01D9211
:1027800041505040E0F708950E94061408F481E09B
:102790000895E89409C097FB3EF490958095709554
:1027A00061957F4F8F4F9F4F9923A9F0F92F96E99D
:1027B000BB279395F695879577956795B795F11112
:1027C000F8CFFAF4BB0F11F460FF1BC06F5F7F4FAF
:1027D0008F4F9F4F16C0882311F096E911C07723C1
:1027E00021F09EE8872F762F05C0662371F096E8CA
:1027F000862F70E060E02AF09A95660F771F881F99
:10280000DAF7880F9695879597F90895990F00083C
:10281000550FAA0BE0E8FEEF16161706E807F907B2
:10282000C0F012161306E407F50798F0621B730B4D
:10283000840B950B39F40A2661F0232B242B252BCE
:1028400021F408950A2609F4A140A6958FEF811D71
:10285000811D08950E943D140C94AE140E94A01492
:1028600038F00E94A71420F0952311F00C949714CF
:102870000C949D1411240C94E2140E94BF1470F364
:10288000959FC1F3950F50E0551F629FF001729F15
:10289000BB27F00DB11D639FAA27F00DB11DAA1F24
:1028A000649F6627B00DA11D661F829F2227B00D71
:1028B000A11D621F739FB00DA11D621F839FA00DFC
:1028C000611D221F749F3327A00D611D231F849F4C
:1028D000600D211D822F762F6A2F11249F575040A3
:1028E0009AF0F1F088234AF0EE0FFF1FBB1F661F1E
:1028F000771F881F91505040A9F79E3F510580F0E7
:102900000C9497140C94E2145F3FE4F3983ED4F3D4
:10291000869577956795B795F795E7959F5FC1F78A
:10292000FE2B880F911D9695879597F9089597F935
:102930009F6780E870E060E008959FEF80EC089565
:1029400000240A941616170618060906089500248E
:102950000A9412161306140605060895092E039408
:10296000000C11F4882352F0BB0F40F4BF2B11F47C
:1029700060FF04C06F5F7F4F8F4F9F4F089557FDDB
:102980009058440F551F59F05F3F71F04795880FDD
:1029900097FB991F61F09F3F79F087950895121674
:1029A00013061406551FF2CF4695F1DF08C0161620
:1029B00017061806991FF1CF8695710561050894D1
:1029C0000895E894BB2766277727CB0197F90895E8
:1029D000F999FECF92BD81BDF89A992780B50895E7
:1029E0002F923F924F925F926F927F928F929F921F
:1029F000AF92BF92CF92DF92EF92FF920F931F930D
:102A0000CF93DF93CDB7DEB7CA1BDB0B0FB6F894BD
:102A1000DEBF0FBECDBF09942A88398848885F84FD
:102A20006E847D848C849B84AA84B984C884DF806E
:102A3000EE80FD800C811B81AA81B981CE0FD11D52
:102A40000FB6F894DEBF0FBECDBFED01089510E0C4
:102A5000C8E5D0E004C0FE010E9482102196C9356D
:082A6000D107C9F7F894FFCF7C
:102A68000000B705800000000000B6028602D5000D
:102A78005A027E026A025B02000000007406A90086
:102A8800E502BB061603F402080300000000210259
:102A9800D900D800EE052C0300000000000000005B
:102AA800D800E500E50068656C6C6F210A00424EAD
:102AB8004F3035352073656E736F722049443A2064
:102AC80000454550524F4D2073656E736F72204913
:102AD800443A20000A4E6F2043616C696272617447
:102AE800696F6E204461746120666F722074686932
:102AF800732073656E736F722065786973747320C1
:102B0800696E20454550524F4D000A466F756E64F8
:102B18002043616C6962726174696F6E20666F72BE
:102B280020746869732073656E736F7220696E20F4
:102B3800454550524F4D2E00416363656C65726F79
:102B48006D657465723A20000A4779726F3A200001
:102B58000A4D61673A20000A416363656C2052613F
:102B6800646975733A20000A4D616720526164698F
:102B780075733A20000A0A526573746F72696E673A
:102B88002043616C6962726174696F6E206461745C
:102B98006120746F2074686520424E4F3035352EA1
:102BA8002E2E000A0A43616C6962726174696F6E45
:102BB8002064617461206C6F6164656420696E745F
:102BC8006F20424E4F303535002D2D2D2D2D2D2DBA
:102BD8002D2D2D2D2D2D2D2D2D2D2D2D2D2D2D2D1D
:102BE8002D2D2D2D2D2D2D2D2D2D2D2D2D005365DC
:102BF8006E736F723A2020202020202000447269D2
:102C0800766572205665723A20202000556E6971EB
:102C180075652049443A20202020004D61782056CF
:102C2800616C75653A202020200020787878004D66
:102C3800696E2056616C75653A2020202000526527
:102C4800736F6C7574696F6E3A2020200053797326
:102C580074656D205374617475733A20307800532D
:102C6800656C6620546573743A20202020203078E3
:102C78000053797374656D204572726F723A202023
:102C88003078007265616479210A000A7374617290
:102C980074696E670A000A73746F7070696E670AE8
:102CA80000696D7509740009657A0009657900097C
:102CB800657800096778000967790009677A00096B
:102CC8006C7800096C7900096C7A00097373000943
:102CD8007367000973610009736D004F6F6F70733C
:102CE8002C206E6F20424E4F303535206465746558
:102CF80063746564202E2E2E20436865636B2079EB
:102D08006F757220776972696E67206F7220493219
:102D180043204144445221000D0A006E616E00694F
:082D28006E66006F7666000084
:00000001FF
